:020000040800F2
:100000000050002021020008270200082B020008EF
:1000100043020008470200085F02000800000000D9
:10002000000000000000000000000000770200084F
:100030007B020008000000007F0200081D0A000883
:100040009102000891020008910200089102000844
:100050009102000891020008910200089102000834
:100060009102000891020008910200089102000824
:100070009102000891020008910200089102000814
:100080009102000891020008910200089102000804
:1000900091020008910200089102000891020008F4
:1000A00091020008910200089102000891020008E4
:1000B00091020008910200089102000891020008D4
:1000C00091020008910200089102000891020008C4
:1000D00091020008910200089102000891020008B4
:1000E000910200089102000891020008000000003F
:1000F0000000000000000000000000000000000000
:1001000000000000000000005FF808F100B583B0B7
:1001100000F000F9304B314A1360314A1360314B23
:10012000314A32498B4204D21168196004330432D7
:10013000F7E72A4B1A682E4B9A4200D0FEE7284B6D
:100140001A682C4B9A42F9D1234B2B4A13602B4A45
:1001500013602B4B02E000221A600433294A9342B9
:10016000F9D3254B1B6813B9244B1B6803B1FEE779
:1001700000F0DCF8694601A800F0C4F8224C234BDB
:10018000E41AA4100025AC4214DC214C214BE41AE3
:10019000A4100025AC4213DC0099019800F058FC33
:1001A00005461D4C1D4BE41AA410002C0EDC2846FD
:1001B00000F084F8154B53F8253098470135E2E7F5
:1001C000144B53F8253098470135E3E7013C134BB6
:1001D00053F824309847E8E7BABADECA0000002096
:1001E0008400002000000020F0200008880000208B
:1001F000785634123254769888000020A8000020E7
:1002000088000020AC000020BC020008BC020008EE
:10021000BC020008BC020008BC020008BC020008C6
:1002200008B5FFF773FF00BEFEE71EF0040F0CBF1A
:10023000EFF30880EFF309807146124A104700BEC1
:10024000FEE700BEFEE71EF0040F0CBFEFF30880D0
:10025000EFF3098071460C4A104700BEFEE71EF01E
:10026000040F0CBFEFF30880EFF309807146074AD3
:10027000104700BEFEE700BEFEE700BEFEE700BE80
:10028000FEE770473F0200085B02000873020008A7
:0402900000BEFEE7C7
:10029400F02000080000002088000020F020000862
:1002A400000000000000000088000020AC000020D6
:0802B400000000000000000042
:1002BC00FEE7000008B503460C4A12685AB10B4A17
:1002CC001068033323F003030344094A934206D80E
:1002DC00064A136008BD054A06491160EFE701F0B4
:1002EC00C7FA0C2303604FF0FF30F3E78C000020BB
:1002FC00004C0020AC00002001230360014B0B607C
:10030C00704700BF0400002008B500F073F8024AE3
:10031C00024B9A6008BD00BF0000000800ED00E031
:10032C0008B500F08FF808BD82B00023019300934C
:10033C002C4A136843F4803313602A4B1B6803F474
:10034C0000330093019B01330193009B1BB9019B6C
:10035C00B3F5A06FF1D1234B1B6813F4003F06D00B
:10036C0001230093009B012B04D002B070470023A3
:10037C000093F7E71C4B1A6842F010021A601A68D7
:10038C0022F003021A601A6842F002021A60A3F506
:10039C0080535A685A605A685A605A6842F48062AC
:1003AC005A605A6822F47C125A605A6842F4E81275
:1003BC005A601A6842F080721A600A4B1B6813F07C
:1003CC00007FFAD0074B5A6822F003025A605A6831
:1003DC0042F002025A60034B5B6803F00C03082BDB
:1003EC00F9D1C2E7001002400020024008B5FFF727
:1003FC009BFF08BD08B5104B1A6842F001021A6049
:10040C0059680E4A0A405A601A6822F0847222F423
:10041C0080321A601A6822F480221A605A6822F418
:10042C00FE025A604FF41F029A60FFF7DFFF044B85
:10043C004FF000629A6008BD001002400000FFF807
:10044C0000ED00E01F4B5B6803F00C03042B15D090
:10045C00082B17D01BB11C4B1C4A1A6002E01A4B1C
:10046C001A4A1A60174B5B68C3F30313184AD35C20
:10047C00DAB215490B68D3400B607047124B134A24
:10048C001A60EFE70F4A53685268C3F38343023391
:10049C0012F4803F0AD00B4A526812F4003F0BD082
:1004AC000C4A02FB03F3084A1360DBE7094A02FB20
:1004BC0003F3054A1360D5E7044A02FB03F3024A2F
:1004CC001360CFE7001002401C00002000127A00DD
:1004DC000C00002000093D00034B1A6842F0010299
:1004EC001A601A681A607047082401400C4B1A688D
:1004FC0042F001021A600B490A6842F480120A6049
:10050C0008310A6822F01F0242F002020A601A68DF
:10051C0042F001021A601A6842F480021A607047B5
:10052C00082401402C240140044B1B6813F0020FDB
:10053C00FAD0034B186880B2704700BF002401400A
:10054C004C24014010B4012827D018B1022847D000
:10055C0010BC7047072912D90F29F9D8A1F108044A
:10056C00E4B2314B1968A4000F20A04021EA00012D
:10057C001960186802FA04F101431960E8E72B4B83
:10058C00186889000F248C4020EA04001860186851
:10059C0002FA01F101431960DAE7072912D90F2990
:1005AC00D6D8A1F10800C0B2214B196880000F24E5
:1005BC00844021EA040119601C6802FA00F121430D
:1005CC001960C5E71B4B186889000F248C4020EA82
:1005DC0004001860186802FA01F101431960B7E7CA
:1005EC00072912D90F29B3D8A1F10803DBB212489D
:1005FC0001689B000F249C4021EA040101600468FF
:10060C0002FA03F121430160A2E70C4B1868890040
:10061C000F248C4020EA04001860186802FA01F1DB
:10062C000143196094E700BF040801400008014031
:10063C00040C0140000C014004100140001001406A
:10064C00012816D010B1022826D0704742B1012AD9
:10065C0034D11B48036802FA01F119430160704759
:10066C0017480368012202FA01F123EA0101016033
:10067C00704742B1012A21D11248036802FA01F1F4
:10068C001943016070470F480368012202FA01F117
:10069C0023EA01010160704742B1012A0ED10A48D8
:1006AC00036802FA01F119430160704706480368B8
:1006BC00012202FA01F123EA01010160704700BF37
:1006CC000C0801400C0C01400C10014010B5044604
:1006DC00002211461046FFF7B3FFC4F3C0120921E4
:1006EC000020FFF7ADFFC4F3801208210020FFF7B4
:1006FC00A7FFC4F3401207210020FFF7A1FFC4F3AA
:10070C00001206210020FFF79BFF0122114600205A
:10071C00FFF796FF4FF4FA6000F05EF9002201211A
:10072C001046FFF78DFFC4F3C00209210020FFF72C
:10073C0087FFC4F3800208210020FFF781FFC4F378
:10074C00400207210020FFF77BFF04F00102062185
:10075C000020FFF775FF012211460020FFF770FF04
:10076C004FF4FA6000F038F9002201211046FFF72F
:10077C0067FF10BD08B500F029F9022200210846D8
:10078C00FFF7E0FE022201210020FFF7DBFE022230
:10079C0009210020FFF7D6FE022208210020FFF7D6
:1007AC00D1FE022207210020FFF7CCFE02220621F7
:1007BC000020FFF7C7FE48F6B80000F00DF9022044
:1007CC00FFF784FF4FF47A7000F006F92F20FFF743
:1007DC007DFF4FF47A7000F0FFF80F20FFF776FFE3
:1007EC004FF47A7000F0F8F80120FFF76FFF4FF428
:1007FC007A7000F0F1F80620FFF768FF4FF47A707A
:10080C0000F0EAF808BD10B50446012200210846A4
:10081C00FFF716FF012211460020FFF711FFE20936
:10082C0009210020FFF70CFFC4F3801208210020DF
:10083C00FFF706FFC4F3401207210020FFF700FF6B
:10084C00C4F3001206210020FFF7FAFE002201215A
:10085C001046FFF7F5FE4FF4FA6000F0BDF80122E8
:10086C0011460020FFF7ECFEC4F3C0020921002062
:10087C00FFF7E6FEC4F3800208210020FFF7E0FE3C
:10088C00C4F3400207210020FFF7DAFE04F0010256
:10089C0006210020FFF7D4FE002201211046FFF7AD
:1008AC00CFFE4FF4FA6000F097F8012211460020B9
:1008BC00FFF7C6FE4FF4FA6000F08EF810BD38B5A5
:1008CC000546002403E0FFF79EFF0134E4B2285DE7
:1008DC000028F8D138BD000000B58BB002460549A0
:1008EC00684600F0CBFF6846FFF7E9FF0BB05DF8F8
:1008FC0004FB00BFA8200008F8B506460F4600F020
:10090C00BBFC054600F03CFA02460B463046394625
:10091C0000F0E8F800F0D8FC094900F033FE00F0D4
:10092C0081FF00F0DBFD04462846FFF7D5FF2E20A3
:10093C00FFF769FF204600F075FFFFF7CDFFF8BD0C
:10094C0000007A4408B5032804D8DFE800F003025D
:10095C000A0C4020084460F07F00C0B2FFF7B6FEDE
:10096C0008BD1420F6E75420F4E70000034B4FF4C5
:10097C0080321A60043301221A6070470010024062
:10098C001F291CD801280BD010B1022810D0704799
:10099C000B480368012202FA01F119430160704708
:1009AC0008480368012202FA01F1194301607047FB
:1009BC0005480368012202FA01F1194301607047EE
:1009CC00141002401C10024018100240014B00226F
:1009DC001A60704710E000E00B4B18600B4A13686C
:1009EC0043F001031360094B1B6813F4803FFAD0EA
:1009FC00064A136823F001031360002304321360CA
:100A0C0004321360704700BF14E000E010E000E017
:100A1C0008B5094B1B784BB9084A136823F003033C
:100A2C00136000230432136004321360044B1B6800
:100A3C009847024B1B6808BD9800002010E000E0AE
:100A4C009400002010B5FFF791FF02210846FFF734
:100A5C0097FF09210220FFF793FF00221146104651
:100A6C00FFF770FDFFF7B2FFFFF784FEFFF734FDD1
:100A7C00FFF73CFDFFF758FD00F082F90022124B06
:100A8C0000F0E8F900F020FC00F08CF900220F4B8C
:100A9C0000F028F800220E4B00F0DCF900F014FCFA
:100AAC0004460120FFF712FE00210846FFF74AFF1B
:100ABC000848FFF704FF204600F074F9FFF71CFF0D
:100ACC000548FFF789FFD3E70000543F0000E03FE3
:100ADC0000005940AC20000840420F0081F000415A
:100AEC0002E000BF83F0004330B54FEA41044FEA07
:100AFC00430594EA050F08BF90EA020F1FBF54EAA2
:100B0C00000C55EA020C7FEA645C7FEA655C00F03D
:100B1C00E2804FEA5454D4EB5555B8BF6D420CDD0E
:100B2C002C4480EA020281EA030382EA000083EA91
:100B3C00010180EA020281EA0303362D88BF30BD31
:100B4C0011F0004F4FEA01314FF4801C4CEA113187
:100B5C0002D0404261EB410113F0004F4FEA0333E6
:100B6C004CEA133302D0524263EB430394EA050F71
:100B7C0000F0A780A4F10104D5F1200E0DDB02FAE0
:100B8C000EFC22FA05F2801841F1000103FA0EF274
:100B9C00801843FA05F359410EE0A5F120050EF13A
:100BAC00200E012A03FA0EFC28BF4CF0020C43FA6B
:100BBC0005F3C01851EBE37101F0004507D54FF078
:100BCC00000EDCF1000C7EEB00006EEB0101B1F5C8
:100BDC00801F1BD3B1F5001F0CD349085FEA30000E
:100BEC004FEA3C0C04F101044FEA445212F5800F19
:100BFC0080F09A80BCF1004F08BF5FEA500C50F1B6
:100C0C00000041EB045141EA050130BD5FEA4C0C98
:100C1C00404141EB010111F4801FA4F10104E9D121
:100C2C0091F0000F04BF01460020B1FA81F308BF18
:100C3C002033A3F10B03B3F120020CDA0C3208DDE4
:100C4C0002F1140CC2F10C0201FA0CF021FA02F1BF
:100C5C000CE002F11402D8BFC2F1200C01FA02F12F
:100C6C0020FA0CFCDCBF41EA0C019040E41AA2BF54
:100C7C0001EB0451294330BD6FEA04041F3C1CDA1C
:100C8C000C340EDC04F11404C4F1200220FA04F03C
:100C9C0001FA02F340EA030021FA04F345EA0301E6
:100CAC0030BDC4F10C04C4F1200220FA02F001FAA8
:100CBC0004F340EA0300294630BD21FA04F029462A
:100CCC0030BD94F0000F83F4801306BF81F48011C3
:100CDC000134013D4EE77FEA645C18BF7FEA655C36
:100CEC0029D094EA050F08BF90EA020F05D054EA08
:100CFC00000C04BF1946104630BD91EA030F1EBF0D
:100D0C000021002030BD5FEA545C05D14000494110
:100D1C0028BF41F0004130BD14F580043CBF01F503
:100D2C00801130BD01F0004545F0FE4141F47001E9
:100D3C004FF0000030BD7FEA645C1ABF19461046C4
:100D4C007FEA655C1CBF0B46024650EA013406BFC5
:100D5C0052EA033591EA030F41F4002130BD00BF84
:100D6C0090F0000F04BF0021704730B54FF4806441
:100D7C0004F132044FF000054FF0000150E700BFC2
:100D8C0090F0000F04BF0021704730B54FF4806421
:100D9C0004F1320410F0004548BF40424FF000010E
:100DAC003EE700BF42004FEAE2014FEA31014FEA51
:100DBC0002701FBF12F07F4393F07F4F81F06051A0
:100DCC00704732F07F4208BF704793F07F4F04BFEB
:100DDC0041F40021704730B54FF4607401F00045C8
:100DEC0021F000411CE700BF50EA010208BF704728
:100DFC0030B54FF000050AE050EA010208BF704719
:100E0C0030B511F0004502D5404261EB41014FF481
:100E1C00806404F132045FEA915C3FF4D8AE4FF089
:100E2C0003025FEADC0C18BF03325FEADC0C18BF6C
:100E3C00033202EBDC02C2F1200300FA03FC20FABD
:100E4C0002F001FA03FE40EA0E0021FA02F114440A
:100E5C00BDE600BF70B54FF0FF0C4CF4E06C1CEA23
:100E6C0011541DBF1CEA135594EA0C0F95EA0C0F94
:100E7C0000F0DEF82C4481EA030621EA4C5123EA07
:100E8C004C5350EA013518BF52EA033541F4801136
:100E9C0043F4801338D0A0FB02CE4FF00005E1FBE9
:100EAC0002E506F00042E0FB03E54FF00006E1FB33
:100EBC0003569CF0000F18BF4EF0010EA4F1FF0476
:100ECC00B6F5007F64F5407404D25FEA4E0E6D41B6
:100EDC0046EB060642EAC62141EA55514FEAC520C7
:100EEC0040EA5E504FEACE2EB4F1FD0C88BFBCF543
:100EFC00E06F1ED8BEF1004F08BF5FEA500E50F1F4
:100F0C00000041EB045170BD06F0004646EA0101B9
:100F1C0040EA020081EA0301B4EB5C04C2BFD4EBEB
:100F2C000C0541EA045170BD41F480114FF0000EE4
:100F3C00013C00F3AB8014F1360FDEBF002001F052
:100F4C00004170BDC4F10004203C35DA0C341BDCCC
:100F5C0004F11404C4F1200500FA05F320FA04F09E
:100F6C0001FA05F240EA020001F0004221F00041D2
:100F7C0010EBD37021FA04F642EB06015EEA430E45
:100F8C0008BF20EAD37070BDC4F10C04C4F1200575
:100F9C0000FA04F320FA05F001FA04F240EA020028
:100FAC0001F0004110EBD37041F100015EEA430EF9
:100FBC0008BF20EAD37070BDC4F1200500FA05F219
:100FCC004EEA020E20FA04F301FA05F243EA020398
:100FDC0021FA04F001F0004121FA04F220EA0200A7
:100FEC0000EBD3705EEA430E08BF20EAD37070BDED
:100FFC0094F0000F0FD101F00046400041EB0101CD
:10100C0011F4801F08BF013CF7D041EA060195F0AE
:10101C00000F18BF704703F00046520043EB030368
:10102C0013F4801F08BF013DF7D043EA0603704755
:10103C0094EA0C0F0CEA135518BF95EA0C0F0CD060
:10104C0050EA410618BF52EA4306D1D181EA0301A6
:10105C0001F000414FF0000070BD50EA410606BFA0
:10106C001046194652EA430619D094EA0C0F02D1E5
:10107C0050EA013613D195EA0C0F05D152EA03362A
:10108C001CBF104619460AD181EA030101F0004148
:10109C0041F0FE4141F470014FF0000070BD41F091
:1010AC00FE4141F4780170BD70B54FF0FF0C4CF46B
:1010BC00E06C1CEA11541DBF1CEA135594EA0C0F8A
:1010CC0095EA0C0F00F0A7F8A4EB050481EA030ED7
:1010DC0052EA03354FEA013100F088804FEA0333BE
:1010EC004FF0805545EA131343EA12634FEA02228C
:1010FC0045EA111545EA10654FEA00260EF000414D
:10110C009D4208BF964244F1FD0404F5407402D29E
:10111C005B084FEA3202B61A65EB03055B084FEA2F
:10112C0032024FF480104FF4002CB6EB020E75EB2C
:10113C00030E22BFB61A754640EA0C005B084FEA54
:10114C003202B6EB020E75EB030E22BFB61A7546D1
:10115C0040EA5C005B084FEA3202B6EB020E75EB1C
:10116C00030E22BFB61A754640EA9C005B084FEA94
:10117C003202B6EB020E75EB030E22BFB61A7546A1
:10118C0040EADC0055EA060E18D04FEA051545EA90
:10119C0016754FEA06164FEAC30343EA52734FEA39
:1011AC00C2025FEA1C1CC0D111F4801F0BD141EAB2
:1011BC0000014FF000004FF0004CB6E711F4801F17
:1011CC0004BF01430020B4F1FD0C88BFBCF5E06FF7
:1011DC003FF6AFAEB5EB030C04BFB6EB020C5FEA07
:1011EC00500C50F1000041EB045170BD0EF0004E5C
:1011FC004EEA113114EB5C04C2BFD4EB0C0541EA8E
:10120C00045170BD41F480114FF0000E013C90E68A
:10121C0045EA060E8DE60CEA135594EA0C0F08BF4E
:10122C0095EA0C0F3FF43BAF94EA0C0F0AD150EA4D
:10123C0001347FF434AF95EA0C0F7FF425AF1046E0
:10124C0019462CE795EA0C0F06D152EA03353FF408
:10125C00FDAE1046194622E750EA410618BF52EA85
:10126C0043067FF4C5AE50EA41047FF40DAF52EA59
:10127C0043057FF4EBAE12E74FEA410212F5001280
:10128C0015D211D56FF47873B3EB625212D94FEAC1
:10129C00C12343F0004343EA505311F0004F23FAAB
:1012AC0002F018BF404270474FF00000704750EA00
:1012BC00013005D111F0004008BF6FF000407047BD
:1012CC004FF00000704700BF4FEA4102B2F1E0431B
:1012DC0024BFB3F5001CDCF1FE5C0DD901F0004C11
:1012EC004FEAC0024CEA5070B2F1004F40EB830061
:1012FC0008BF20F00100704711F0804F21D113F18D
:10130C003872BCBF01F00040704741F480114FEAC5
:10131C005252C2F11802C2F1200C10FA0CF320FA4E
:10132C0002F018BF40F001004FEAC1234FEAD3236B
:10133C0003FA0CFC40EA0C0023FA02F34FEA4303D5
:10134C00CCE77FEA625307D150EA01331EBF4FF05E
:10135C00FE4040F44000704701F0004040F0FE4079
:10136C0040F40000704700BF80F0004002E000BF76
:10137C0081F0004142001FBF5FEA410392EA030F74
:10138C007FEA226C7FEA236C6AD04FEA1262D2EBBE
:10139C001363C1BFD218414048404140B8BF5B42C3
:1013AC00192B88BF704710F0004F40F4000020F05C
:1013BC007F4018BF404211F0004F41F4000121F072
:1013CC007F4118BF494292EA030F3FD0A2F10102BC
:1013DC0041FA03FC10EB0C00C3F1200301FA03F1FA
:1013EC0000F0004302D5494260EB4000B0F5000F1D
:1013FC0013D3B0F1807F06D340084FEA310102F1DC
:10140C000102FE2A51D2B1F1004F40EBC25008BF8D
:10141C0020F0010040EA03007047490040EB000057
:10142C0010F4000FA2F10102EDD1B0FA80FCACF186
:10143C00080CB2EB0C0200FA0CF0AABF00EBC25085
:10144C0052421843BCBFD0401843704792F0000F73
:10145C0081F4000106BF80F400000132013BB5E7C6
:10146C004FEA41037FEA226C18BF7FEA236C21D03C
:10147C0092EA030F04D092F0000F08BF08467047A1
:10148C0090EA010F1CBF0020704712F07F4F04D16F
:10149C00400028BF40F00040704712F100723CBF82
:1014AC0000F50000704700F0004343F0FE4040F4AC
:1014BC00000070477FEA226216BF08467FEA23636A
:1014CC000146420206BF5FEA412390EA010F40F455
:1014DC00800070474FF0000304E000BF10F00043A1
:1014EC0048BF40425FEA000C08BF704743F0964388
:1014FC0001464FF000001CE050EA010208BF7047A3
:10150C004FF000030AE000BF50EA010208BF704729
:10151C0011F0004302D5404261EB41015FEA010C3E
:10152C0002BF84460146002043F0B64308BFA3F136
:10153C008053A3F50003BCFA8CF2083AA3EBC25318
:10154C0010DB01FA02FC634400FA02FCC2F1200237
:10155C00BCF1004F20FA02F243EB020008BF20F06E
:10156C000100704702F1200201FA02FCC2F12002D4
:10157C0050EA4C0021FA02F243EB020008BF20EAC9
:10158C00DC7070474FF0FF0C1CEAD0521EBF1CEAF7
:10159C00D15392EA0C0F93EA0C0F6FD01A4480EAE5
:1015AC00010C400218BF5FEA41211ED04FF00063CE
:1015BC0043EA501043EA5111A0FB01310CF00040FA
:1015CC00B1F5000F3EBF490041EAD3715B0040EA20
:1015DC00010062F17F02FD2A1DD8B3F1004F40EBF0
:1015EC00C25008BF20F00100704790F0000F0CF0C3
:1015FC00004C08BF49024CEA502040EA51207F3A87
:10160C00C2BFD2F1FF0340EAC250704740F4000061
:10161C004FF00003013A5DDC12F1190FDCBF00F052
:10162C0000407047C2F10002410021FA02F1C2F100
:10163C00200200FA02FC5FEA310040F1000053EA9C
:10164C004C0308BF20EADC70704792F0000F00F0EA
:10165C00004C02BF400010F4000F013AF9D040EAF0
:10166C000C0093F0000F01F0004C02BF490011F484
:10167C00000F013BF9D041EA0C018FE70CEAD15382
:10168C0092EA0C0F18BF93EA0C0F0AD030F0004C02
:10169C0018BF31F0004CD8D180EA010000F00040B6
:1016AC00704790F0000F17BF90F0004F084691F074
:1016BC00000F91F0004F14D092EA0C0F01D14202AE
:1016CC000FD193EA0C0F03D14B0218BF084608D177
:1016DC0080EA010000F0004040F0FE4040F40000C1
:1016EC00704740F0FE4040F4400070474FF0FF0C54
:1016FC001CEAD0521EBF1CEAD15392EA0C0F93EA9B
:10170C000C0F69D0A2EB030280EA010C49024FEAEC
:10171C00402037D04FF0805343EA111143EA1013A5
:10172C000CF000408B4238BF5B0042F17D024FF45D
:10173C00000C8B4224BF5B1A40EA0C00B3EB510F38
:10174C0024BFA3EB510340EA5C00B3EB910F24BF21
:10175C00A3EB910340EA9C00B3EBD10F24BFA3EBA6
:10176C00D10340EADC001B0118BF5FEA1C1CE0D16E
:10177C00FD2A3FF650AF8B4240EBC25008BF20F021
:10178C00010070470CF0004C4CEA50207F32C2BF75
:10179C00D2F1FF0340EAC250704740F400004FF012
:1017AC000003013A37E792F0000F00F0004C02BF43
:1017BC00400010F4000F013AF9D040EA0C0093F00D
:1017CC00000F01F0004C02BF490011F4000F013B67
:1017DC00F9D041EA0C0195E70CEAD15392EA0C0FCF
:1017EC0008D142027FF47DAF93EA0C0F7FF470AF07
:1017FC00084676E793EA0C0F04D14B023FF44CAF4A
:10180C0008466EE730F0004C18BF31F0004CCAD1DE
:10181C0030F000427FF45CAF31F000437FF43CAF1A
:10182C005FE700BF4FEA4002B2F1FE4F0FD34FF01B
:10183C009E03B3EB12620DD94FEA002343F0004331
:10184C0010F0004F23FA02F018BF404270474FF0DF
:10185C000000704712F1610F01D1420205D110F066
:10186C00004008BF6FF0004070474FF00000704719
:10187C00014B1868704700BF200000200EB46FF0B9
:10188C00004100B59CB01DAB0290069007910491ED
:10189C000848094953F8042B0591006802A90193E3
:1018AC0000F066F80022029B1A701CB05DF804EB85
:1018BC0003B07047200000200802FFFF2DE9F0471D
:1018CC008E6882469E420C469046994637D88A8945
:1018DC0012F4906F31D00223256809696F1A65697B
:1018EC0005EB450595FBF3F509F101033B449D42DE
:1018FC0038BF1D46530530D5294600F035FB06464A
:10190C0050B90C234FF0FF30CAF80030A38943F0D4
:10191C004003A381BDE8F0873A46216900F0B4FA90
:10192C00A38923F4906343F08003A38126613E4492
:10193C0026604E466561ED1BA5604E4500D94E46AE
:10194C0032464146206800F0AAFAA36800209B1B8F
:10195C00A36023681E442660DCE72A4600F05EFB89
:10196C0006460028E2D12169504600F0B1FAC8E7DA
:10197C002DE9F04F9DB003938B8980461D060C46D4
:10198C0016460FD50B696BB9402100F0EDFA2060BB
:10199C00206128B90C23C8F800304FF0FF30C7E0A5
:1019AC00402363610023099320238DF829303023D1
:1019BC004FF0010B8DF82A3037463D4615F8013BA8
:1019CC000BB1252B3ED1B7EB060A0BD05346324652
:1019DC0021464046FFF772FF013000F0A480099BBE
:1019EC00534409933B78002B00F09D8000234FF06B
:1019FC00FF32CDE90523049307938DF853301A93E6
:101A0C002F46052217F8011B4F4800F02FFA049BB4
:101A1C00D0B9D90644BF20228DF853201A0744BFF1
:101A2C002B228DF853202A782A2A15D02F460020F5
:101A3C000A25079A394611F8013B303B092B4DD941
:101A4C00B8B10FE02F46B8E73F4A3D46801A0BFA73
:101A5C0000F018430490D3E7039A111D1268039108
:101A6C00002A01DB079204E0524243F00203079282
:101A7C0004933B782E2B0CD17B782A2B33D1039BF0
:101A8C0002371A1D1B680392002BB8BF4FF0FF33AF
:101A9C0005932E4D03223978284600F0E7F938B12A
:101AAC004023401B03FA00F0049B013703430493CB
:101ABC003978062226487E1C8DF8281000F0D6F9BD
:101ACC00002838D0234B13BB039B073323F00703A9
:101ADC0008330393099B4B4409936DE705FB0232D2
:101AEC0001200F46A6E700230A2519460137059366
:101AFC00384610F8012B303A092A03D9002BC8D0EC
:101B0C000591C6E705FB012101230746F0E703AB6E
:101B1C0000932246104B04A94046AFF30080B0F16D
:101B2C00FF3F8146D6D1A3895B063FF536AF0998B6
:101B3C001DB0BDE8F08F03AB00932246064B04A901
:101B4C00404600F081F8EAE7BC200008C2200008FB
:101B5C00C620000800000000C91800082DE9F04755
:101B6C0091461F468A680B6906469342B8BF1346D6
:101B7C00C9F8003091F843200C46DDF8208012B1F2
:101B8C000133C9F800302368990642BFD9F80030F8
:101B9C000233C9F80030256815F0060507D104F1A9
:101BAC00190AE368D9F800209B1AAB4229DC94F897
:101BBC0043302268003318BF012392062ED404F15F
:101BCC00430239463046C047013021D02368E568CE
:101BDC0003F00603042B18BF0025D9F800204FF0A2
:101BEC00000908BFAD1AA368226908BF25EAE5758C
:101BFC009342C4BF9B1AED181A344D451AD10020DC
:101C0C0008E00123524639463046C047013003D123
:101C1C004FF0FF30BDE8F0870135C2E73020E11806
:101C2C0081F843005A1C94F845102244023382F880
:101C3C004310C4E70123224639463046C0470130E1
:101C4C00E6D009F10109D8E72DE9F04301F1430C85
:101C5C000C46097E85B06E291746064698460C9AA6
:101C6C0000F0B38022D8632936D00AD8002900F0BE
:101C7C00B980582900F0838004F1420584F84210A1
:101C8C0032E0642901D06929F6D120681368050671
:101C9C0003F104012AD51B681160002B03DA2D22F5
:101CAC005B4284F843206F480A2239E0732900F024
:101CBC009D8008D86F2920D07029DDD1236843F08E
:101CCC002003236003E0752917D07829D4D1782319
:101CDC00654884F8453055E0136804F14205191D38
:101CEC001B68116084F8423001238CE01B6810F0F3
:101CFC00400F116018BF1BB2CFE713682568181D81
:101D0C001060280601D51B6802E06806FBD51B880D
:101D1C006F2914BF0A2208225248002184F843106C
:101D2C006568002DA560C0F29580216821F0040142
:101D3C002160002B3DD1002D40F08E806546082A95
:101D4C000BD12368DB0708D5236962689A42DEBF92
:101D5C00302305F8013C05F1FF35ACEB050323619D
:101D6C00CDF800803B4603AA21463046FFF7F6FE2D
:101D7C0001304DD14FF0FF3005B0BDE8F08339484C
:101D8C0084F84510136821681D1D1B6815600A0630
:101D9C000BD5CA0744BF41F0200121601BB9226852
:101DAC0022F0200222601022B7E74D0648BF9BB2FA
:101DBC00EFE76546B3FBF2F102FB1133C35C05F8A8
:101DCC00013D0B460029F5D1B9E713682568181DAC
:101DDC006169106028061B6801D5196002E06A066B
:101DEC00FBD51980002365462361B9E71368191DDB
:101DFC0011601D6862680021284600F037F808B1B0
:101E0C00401B606063682361002384F84330A7E7BC
:101E1C0023692A4639463046C0470130AAD0236888
:101E2C009B0713D4E068039B9842B8BF1846A3E7FE
:101E3C0001234A4639463046C04701309AD0013515
:101E4C00E368039A9B1AAB42F2DCEBE7002504F142
:101E5C001909F5E7002BACD1037804F1420584F89D
:101E6C0042306CE7CD200008DE20000810B5C9B266
:101E7C0002449042034601D1002303E01C78013058
:101E8C008C42F6D1184610BD10B5431E0A4491423F
:101E9C0000D110BD11F8014B03F8014FF7E7884250
:101EAC0010B501EB020307D8421E99420AD011F873
:101EBC00014B02F8014FF8E78342F5D98118D21A89
:101ECC00D34200D110BD13F8014D01F8014DF7E7D5
:101EDC0038B50546002943D051F8043C0C1F002BA3
:101EEC00B8BFE41800F0D0F81E4A1368104633B996
:101EFC00636014602846BDE8384000F0C6B8A342C1
:101F0C000BD921686218934201BF1A685B6852189A
:101F1C00226063600460EDE713465A680AB1A2427E
:101F2C00FAD919685818A0420BD1206801445818E6
:101F3C0082421960DED110685268014419605A60FF
:101F4C00D8E702D90C232B60D4E7206821188A42E9
:101F5C0001BF116852680918216062605C60C9E7B2
:101F6C0038BD00BF9C00002070B5CD1C25F00305CA
:101F7C0008350C2D38BF0C25002D064601DBA94277
:101F8C0003D90C233360002070BD00F07DF8214A8A
:101F9C001468214691B9204C23681BB9304600F0D7
:101FAC0063F820602946304600F05EF8431C24D1CB
:101FBC000C233046336000F068F8E4E70B685B1BD9
:101FCC0018D40B2B0FD90B60CC18CD50304600F029
:101FDC005CF804F10B00231D20F00700C31AD3D0CA
:101FEC005A42E250D0E74B688C4216BF63601360D4
:101FFC000C46EBE70C464968CCE7C41C24F0030400
:10200C00A04205D0211A304600F02EF80130CFD076
:10201C002560DBE79C000020A0000020F8B50746F7
:10202C0014460E4621B9BDE8F8401146FFF79CBF97
:10203C0022B9FFF74DFF25462846F8BD00F026F8DB
:10204C00A0420FD221463846FFF78EFF05460028E6
:10205C00F2D031462246FFF717FF31463846FFF7DC
:10206C0037FFE9E73546E7E738B50023054C054669
:10207C0008462360FEF71EF9431C02D1236803B106
:10208C002B6038BDA40000207047704751F8043C09
:10209C00181F002BBCBF0B58C0187047256C640070
:1020AC004144432056616C7565203D2000000000C2
:1020BC00232D302B2000686C4C0065666745464725
:1020CC0000303132333435363738394142434445A8
:1020DC004600303132333435363738396162636417
:0320EC0065660026
:1020F000785634129000002000000000000000001C
:1021000000000000010203040607080900A24A04B7
:10211000240000200000000000000000000000007B
:1021200000000000000000000000000000000000AF
:10213000000000000000000000000000000000009F
:10214000000000000000000000000000000000008F
:10215000000000000000000000000000000000007F
:10216000000000000000000000000000000000006F
:082170000000000032547698D3
:040000050800010DE1
:00000001FF
