:020000040800F2
:100000000050002021020008270200082B020008EF
:1000100043020008470200085F02000800000000D9
:10002000000000000000000000000000770200084F
:100030007B020008000000007F0200080908000899
:100040009102000891020008910200089102000844
:100050009102000891020008910200089102000834
:100060009102000891020008910200089102000824
:100070009102000891020008910200089102000814
:100080009102000891020008910200089102000804
:1000900091020008910200089102000891020008F4
:1000A00091020008910200089102000891020008E4
:1000B00091020008910200089102000891020008D4
:1000C000910200089102000891020008B50700089B
:1000D00091020008910200089102000891020008B4
:1000E000910200089102000891020008000000003F
:1000F0000000000000000000000000000000000000
:1001000000000000000000005FF808F100B583B0B7
:1001100000F0DEF8304B314A1360314A1360314B46
:10012000314A32498B4204D21168196004330432D7
:10013000F7E72A4B1A682E4B9A4200D0FEE7284B6D
:100140001A682C4B9A42F9D1234B2B4A13602B4A45
:1001500013602B4B02E000221A600433294A9342B9
:10016000F9D3254B1B6813B9244B1B6803B1FEE779
:1001700000F0BAF8694601A800F0A2F8224C234B1F
:10018000E41AA4100025AC4214DC214C214BE41AE3
:10019000A4100025AC4213DC0099019800F0EAFBA2
:1001A00005461D4C1D4BE41AA410002C0EDC2846FD
:1001B00000F084F8154B53F8253098470135E2E7F5
:1001C000144B53F8253098470135E3E7013C134BB6
:1001D00053F824309847E8E7BABADECA0000002096
:1001E0002800002000000020A8A900082C00002002
:1001F00078563412325476982C0000203C000020AF
:100200002C00002040000020BC020008BC020008B6
:10021000BC020008BC020008BC020008BC020008C6
:1002200008B5FFF773FF00BEFEE71EF0040F0CBF1A
:10023000EFF30880EFF309807146124A104700BEC1
:10024000FEE700BEFEE71EF0040F0CBFEFF30880D0
:10025000EFF3098071460C4A104700BEFEE71EF01E
:10026000040F0CBFEFF30880EFF309807146074AD3
:10027000104700BEFEE700BEFEE700BEFEE700BE80
:10028000FEE770473F0200085B02000873020008A7
:0402900000BEFEE7C7
:10029400A8A90008000000202C000020A8A900083C
:1002A40000000000000000002C000020400000209E
:0802B400000000000000000042
:1002BC00FEE7000001230360014B0B60704700BF99
:1002CC000400002008B500F073F8024A024B9A6053
:1002DC0008BD00BF0000000800ED00E008B500F00C
:1002EC008FF808BD82B00023019300932C4A136849
:1002FC0043F4803313602A4B1B6803F400330093E0
:10030C00019B01330193009B1BB9019BB3F5A06FBB
:10031C00F1D1234B1B6813F4003F06D0012300934B
:10032C00009B012B04D002B0704700230093F7E729
:10033C001C4B1A6842F010021A601A6822F0030271
:10034C001A601A6842F002021A60A3F580535A68C8
:10035C005A605A685A605A6842F480625A605A6805
:10036C0022F47C125A605A6842F4E8125A601A68F5
:10037C0042F080721A600A4B1B6813F0007FFAD0AF
:10038C00074B5A6822F003025A605A6842F0020284
:10039C005A60034B5B6803F00C03082BF9D1C2E7DE
:1003AC00001002400020024008B5FFF79BFF08BD7B
:1003BC0008B5104B1A6842F001021A6059680E4ACF
:1003CC000A405A601A6822F0847222F480321A6051
:1003DC001A6822F480221A605A6822F4FE025A60CB
:1003EC004FF41F029A60FFF7DFFF044B4FF00062DF
:1003FC009A6008BD001002400000FFF800ED00E01C
:10040C001F4B5B6803F00C03042B15D0082B17D083
:10041C001BB11C4B1C4A1A6002E01A4B1A4A1A6098
:10042C00174B5B68C3F30313184AD35CDAB2154954
:10043C000B68D3400B607047124B134A1A60EFE7FE
:10044C000F4A53685268C3F38343023312F4803F5C
:10045C000AD00B4A526812F4003F0BD00C4A02FB34
:10046C0003F3084A1360DBE7094A02FB03F3054A6E
:10047C001360D5E7044A02FB03F3024A1360CFE78B
:10048C00001002401C00002000127A000C0000201A
:10049C0000093D0010B4012827D018B1022847D01C
:1004AC0010BC7047072912D90F29F9D8A1F10804FB
:1004BC00E4B2314B1968A4000F20A04021EA0001DE
:1004CC001960186802FA04F101431960E8E72B4B34
:1004DC00186889000F248C4020EA04001860186802
:1004EC0002FA01F101431960DAE7072912D90F2941
:1004FC00D6D8A1F10800C0B2214B196880000F2496
:10050C00844021EA040119601C6802FA00F12143BD
:10051C001960C5E71B4B186889000F248C4020EA32
:10052C0004001860186802FA01F101431960B7E77A
:10053C00072912D90F29B3D8A1F10803DBB212484D
:10054C0001689B000F249C4021EA040101600468AF
:10055C0002FA03F121430160A2E70C4B18688900F1
:10056C000F248C4020EA04001860186802FA01F18C
:10057C000143196094E700BF0408014000080140E2
:10058C00040C0140000C014004100140001001401B
:10059C00012816D010B1022826D0704742B1012A8A
:1005AC0034D11B48036802FA01F11943016070470A
:1005BC0017480368012202FA01F123EA01010160E4
:1005CC00704742B1012A21D11248036802FA01F1A5
:1005DC001943016070470F480368012202FA01F1C8
:1005EC0023EA01010160704742B1012A0ED10A4889
:1005FC00036802FA01F11943016070470648036869
:10060C00012202FA01F123EA01010160704700BFE7
:10061C000C0801400C0C01400C100140034B4FF432
:10062C0080321A60043301221A60704700100240B5
:10063C001F291CD801280BD010B1022810D07047EC
:10064C000B480368012202FA01F11943016070475B
:10065C0008480368012202FA01F11943016070474E
:10066C0005480368012202FA01F119430160704741
:10067C00141002401C1002401810024010B5044621
:10068C008378012B49D0002B5CD0394B1A6822F0AF
:10069C0001021204120C21780A431A601A6822F023
:1006AC0002021204120C617842EA41021A601A68C2
:1006BC0022F004021204120CA17842EA81021A60A0
:1006CC001A6822F038021204120CE17842EAC102D4
:1006DC001A601A6822F080021204120C217942EA84
:1006EC00C1121A601A6822F480721204120CA178DA
:1006FC0042EA01221A601A6842F400721A601A68FF
:10070C0022F400621204120C617942EAC1221A60CE
:10071C001A6842F040021A6010BD0922052100201F
:10072C00FFF7B8FE042206210020FFF7B3FE0922D2
:10073C0007210020FFF7AEFE022208210020FFF760
:10074C00A9FEA2E7042211460020FFF7A3FE042213
:10075C0005210020FFF79EFE022206210020FFF754
:10076C0099FE042207210020FFF794FE8DE700BFBD
:10077C000030014038B505460C46002208211046D1
:10078C00FFF706FF074BDD60064B9B6813F0800FED
:10079C00FAD1044BDB682380012208210020FFF7EB
:1007AC00F7FE38BD0030014008B5012208210020B9
:1007BC00FFF7EEFE08BD0000014B00221A607047E7
:1007CC0010E000E00B4B18600B4A136843F0010378
:1007DC001360094B1B6813F4803FFAD0064A136868
:1007EC0023F00103136000230432136004321360FE
:1007FC00704700BF14E000E010E000E008B5094BC2
:10080C001B784BB9084A136823F0030313600023C9
:10081C000432136004321360044B1B689847024B7C
:10082C001B6808BD3800002010E000E034000020F8
:10083C0030B583B00546002002AC04F8010D01224E
:10084C000221FFF7A5FE21462846FFF793FF03B0D0
:10085C0030BD30B583B00546002002AC04F8010D64
:10086C0002460221FFF794FE21462846FFF782FF3D
:10087C0003B030BD10B5022201210020FFF70AFEA3
:10088C00022211460020FFF705FE0122114600202E
:10089C00FFF77EFE6420FFF795FF00220121104632
:1008AC00FFF776FE0120FFF78DFF01221146002095
:1008BC00FFF76EFE6420FFF785FF00220121104632
:1008CC00FFF766FE6420FFF77DFF01221146002032
:1008DC00FFF75EFE094C2046FFF774FF1120FFF76F
:1008EC00B8FF2046FFF76EFF3A20FFF7B2FF052056
:1008FC00FFF79EFF2920FFF7ACFF10BDC0D401000D
:10090C0038B505462A20FFF7A4FF0020FFF790FF1B
:10091C000020FFF78DFF0020FFF78AFF7F20FFF7F5
:10092C0087FF2B20FFF795FF0020FFF781FF0020AA
:10093C00FFF77EFF0020FFF77BFF9F20FFF778FF7C
:10094C002C20FFF786FF00240AE035F81400000A7B
:10095C00FFF76EFF15F81400FFF76AFF0134A4B21D
:10096C00B4F5A04FF1D338BD08B5FFF757FE0221FF
:10097C000846FFF75DFE0C210220FFF759FEFFF73A
:10098C001BFF0448FFF77AFEFFF774FF0248FFF7DE
:10099C00B7FFFEE720000020A8090008D1ACB0ACDE
:1009AC00B0B4498B868289A3A9ABA9ABEAB30BB4CB
:1009BC000BB4EBABCBABCBA3ABA38BA38B9B4A9373
:1009CC002993A882066AE569C78A8582448A85923A
:1009DC00079B2CB464512862E759E761C9822B9BB1
:1009EC00EB920C9B087AA769C769A76146594759CE
:1009FC00E64848594861275988698761C869876101
:100A0C008869CC92AFABEC920C934C93EB822B831A
:100A1C000A7BCE9B8D93CEA3287289826DA38DA366
:100A2C006EA34D9BCC8A0A728859675987596759AE
:100A3C008761A869C971A8716871A9796779A87962
:100A4C008879A979EA79A9698869C87187698669F9
:100A5C008769C869C7692972EB82A97A076AE5694F
:100A6C00679309ACAAA3C8822A938CA3ABA3CBA38C
:100A7C00ACA3CCA3EDAB4EBC8EBC8EBC8EBC6DBC03
:100A8C000BB4AAA3289B657A2693A89BE99BCA93CF
:100A9C0052C5F5D5F5CDF4CDF5CDF4C5D1ACB0AC92
:100AAC00B0B4298B867A699B89A3A9ABEAB30BB442
:100ABC000BB40BACEBABEBABCBABABA3ABA36A9B71
:100ACC004A9BE88A2772E569A682858AA592A59237
:100ADC00E6922993A551AA72496AA97A2B932B9372
:100AEC00EB8A4D9B297AC769E869A76187616759C9
:100AFC0048594859485947598761C869A8690972C2
:100B0C00A869A7694A82EC924D9BCB828972CA7AFA
:100B1C006C8B4C8B0B838D9BAA820872EB92EB92A5
:100B2C000C938B82C86988598859675188596651CA
:100B3C00A761876188698869C98167718879A87993
:100B4C008879A971C971A969A869A769A769E871A8
:100B5C008769E971CB8A286A076AEA82287205726A
:100B6C00679309ACAAA3A7820A938CA3ABA3ABA3EC
:100B7C00ABA3ACA3EDAB4EBC8EBCAEC48EBC4DBC1B
:100B8C00EBABAAA3289385822793C89BEA9BEB9B8C
:100B9C0052C5F5D5F5CDF4CD15CEF5C5B1ACB0AC8F
:100BAC00B0B4298B657A489B89A3A9ABCAAB0BB4AB
:100BBC000BB40CB40CAC0CACECABECABECABABA327
:100BCC008A9B0993887AE569657AA68A858A858ADB
:100BDC00A68A056AC559EB828A720B8B2B8B0B8B01
:100BEC00CB82CB8AE871497AAA82E8698759265167
:100BFC00475127516859A8614651465146594659A3
:100C0C006761C871097A4A826A82697A2C8B0B8374
:100C1C00AD93CE9B2C8BCA82AA820B93EB9208725B
:100C2C00E871E869675947518859875126496651D7
:100C3C00A759A7618B828769C879C879C8798771E8
:100C4C008871A971C971C969C869C8694559666152
:100C5C00E8698B820D93697289720B8B687A066ACC
:100C6C00689309AC899BA782E98A6B9BABA3ABA366
:100C7C00ABA3ACA3EDAB4EB48EBC8EBC8DBC2CB474
:100C8C00EBAB89A30893857A679309A40AA42BA4D8
:100C9C0072C5F5D5F5CDF4CD15CEF5C5B1ACB0AC6E
:100CAC00D0B4498B657A289B89A3C9ABCAAB0AB46B
:100CBC002BB42CB42CB42CB40CB40CB40CACECABDA
:100CCC00ABA34A93C982066A2472C68AA58AA58AEE
:100CDC00C78AC361A5592C8B8A7A0B8B0C8B0C8B16
:100CEC006972086AA7618A7ACB82086A865966514A
:100CFC00675106492649A859C759296A086AC7691C
:100D0C00C869E871A769E871A769A6614551EB82CA
:100D1C008D932C8B0B8B8DA32C9B2C9B0C9BE7719D
:100D2C006661A861A8618859A8596749E859296280
:100D3C00C7598659AB820972AB922DA36A8AC871C6
:100D4C00C871C969A869A869A861C869C7696659E1
:100D5C002972EC8A0C8BAA7A0B83CA7A6972E561C8
:100D6C00489309A4288BA7822A938C9BABA3ABA393
:100D7C00ACA3CCA3ECAB2DB46DBC6DBC6DBC2CB4D6
:100D8C00CAAB89A30793857A889B2AAC0AA44CA486
:100D9C0093CDF5D5F5CD14CE15CEF5C5D1ACD0ACE3
:100DAC00D0B44A8B657A289B89A3C9ABEAAB0BB448
:100DBC002CB44CB44DB44DB42DB42DB40DB40CB402
:100DCC00CBA36B9B0A8B466AE469A682C68AA68A69
:100DDC00C78AC4618551EC82497249728A72496A28
:100DEC00A7596651C8618A7AAA7A6972A66186592E
:100DFC0046514649A8594A6AEB7A0C83CB828A82BF
:100E0C00497A097AA869E971A7694559E869AA7A02
:100E1C00CB824C93ADA3AEA34C9B4DA30C9B8B8A66
:100E2C00E97187618859A859A8516749C851CB7293
:100E3C00EB7AEB7A4D934D9B8EAB0C9BEB92E8715E
:100E4C00A869A8618861A861E8616A7ACB82086A9E
:100E5C00C76949722D8B0C83CA7AC97A4872845936
:100E6C00488BEAA3C782C8828C9BAC9BCCA3ECA317
:100E7C00CCABECAB0DAC2DB44DB44DBC6DBC0BACD4
:100E8C00CAAB89A3E78A8582A8A32AAC0AA46CA45E
:100E9C00B3CDF5D5F5CD15CEF5CDF5C5B0ACB0AC23
:100EAC00D0B44A8B657A289368A3A9ABCAB30BB4A8
:100EBC002BB44CB44DB44DBC4DBC4DBC2DB42DB469
:100ECC00CBABABA34A8B8772E361857AC68AA58AC2
:100EDC00A6824672C659CB7AE87166598759A759CA
:100EEC0046514649096AEC82EB8ACA82086A8659DD
:100EFC00254946510962CB7A2C83EB7ACB82AB82A3
:100F0C00CB8AEC924A82C8698761A761CB82CB827B
:100F1C00EB820B8B4C932C9BADAB0C9B0C9BAB8A41
:100F2C000972A8618861885967518749E8510C7B1F
:100F3C002C7B4C838D9BAEA36D9B2C9B0B932872AF
:100F4C00C861A8618859C8614A724D93EC8A8A823B
:100F5C00C76166596A720C8BAA7A897207628451CE
:100F6C00488BC99BA67AE982CCA3ACA3ECAB0CACA6
:100F7C000DAC0DAC0DB42DB44DB44DB44CB40BAC98
:100F8C00CAAB699BC78AA682C9A32AAC0AA48DAC3A
:100F9C00D4CDF5D515CE15CEF5CDF5C5B1ACB0ACDF
:100FAC00D0B44A8B657A089368A3A9ABC9ABEAB3F2
:100FBC002BB44CB44DB46DBC6DBC6DBC4DBC2DB4E0
:100FCC00ECABABA36B93E88204624472C68AC68A0C
:100FDC00A782A87A07626A72087245596651A759A6
:100FEC0087594651E861EC822C930B8B697A8659B0
:100FFC00665946514651496AEB7A0B83CB824D9325
:10100C004D930C936A7A87618761A761096A8B7A21
:10101C00EC8A4D936D9B4C9BEEAB8DA30D9B0A7A8A
:10102C008869A869A861885987518751E8590C7B50
:10103C00EB7A0B7B8D938D9B0B8B8DA36D9BCA8257
:10104C004A72C8618859A861296A2D8B0C8B0C8B4C
:10105C00497246516651AA7A8972E7618559C55918
:10106C00698B8993A77A2A8BCC9BEDA30DAC2DAC05
:10107C002EB42DB42DB44DB44DB44DB42CB4EBAB47
:10108C00CAAB489BA68AA682E9A32AA40A9CADAC4B
:10109C00D4CDF5CD15CE15CE15CEF5CDD1ACD1AC7C
:1010AC00F0B46A8B657A289368A3A9ABA9ABEAB3B1
:1010BC000BB44CB44CBC6DBC8DBC6EBC6DBC4DBC8F
:1010CC000CACCCA38B93298B0462246AC682E78A6E
:1010DC00667A476AA659A759E871876187594649C4
:1010EC0047518759C861AA7A6D9B8DA3AA8266590C
:1010FC00A761465146516A72AB720B7BEB822C8B0B
:10110C000C8B4D930D8BA86187618761096ACC822A
:10111C008A7A4D934D932B932B936DA3EC92E9719B
:10112C008869A86967598859A8596649E859AA6A0B
:10113C002C7B0B834C8BAD9B8C9B8C9B6C9B0B8B64
:10114C00AB82E8618759A859C861EB820C8B0C8B78
:10115C00497287596651AA7A286AC6592449E661A8
:10116C006A93488BC77A6B93AC9B0DA42DAC4EB491
:10117C004EB44EB44DB44DBC4DB44CB40CB4EBABFE
:10118C00AAAB489BA682A68209AC2AA40A9CCDAC29
:10119C00F4D5F5CD15CE15CE15CE15CED1ACB0AC53
:1011AC00F1BCECA3657AE79268A388A3C9ABEAB358
:1011BC000BB44CB46DBC8DBC8EBC8EC46DBC4DB42C
:1011CC000CB40CACAB9B298B8772C361C682E78ACB
:1011DC004672C5598651A759E87166614659465100
:1011EC0047516651096AEC8A2C9B6DA30C9BA7692D
:1011FC006761675947596759EC822C83EB7AEB820C
:10120C004D8B2D8B6E9BAB82C861A861C861096A3E
:10121C002D936E9BEFA3CA820B93AA82097AA871B5
:10122C008869A8698861886188598751A7518A7231
:10123C000C7B8D93CE9B8C9B8C9B4B938D9B6D933E
:10124C00AB7A87598861A861A7618A7AEB82EC8AAC
:10125C00CB82A75946516A72697A86594551A55174
:10126C006A8B0783C77AAB9BEDA32EAC4EB46EB4DE
:10127C008FBC6EBC6DBC6DBC4DB42CB40CB4CBAB84
:10128C0089A3289BA682E68A09A429A42A9CCEB409
:10129C00F4D516D6F5CDF5CD16CEF5CDF1ACB0AC6A
:1012AC00F1BCECA3657AE78A68A389ABC9B3EAB34E
:1012BC000BB44CBC6CBC8DBC8DBC8EBC6DBC4DBC25
:1012CC002CB40CACCB9B298B877AC461A682E78AA1
:1012DC00266AA55986516651E87186694659465960
:1012EC00675967590972CB8AEB924C9B0C9BE87936
:1012FC00C871C97168614759096A296A2C83697276
:10130C00EB82CB7ACC82AC82AC82C861C861A75923
:10131C00E861EB82CFA3CEA30B8BC661C871A87119
:10132C00A871A8698869886187616751C859AB7AC7
:10133C000C830C834C93ADA3EEABADA3CEA3CFA388
:10134C00CB8A87616759A861A7612972EB8ACB8226
:10135C00AB8229724651086AAB8266594551855158
:10136C004A8BE77AE882AC9BEDA32EAC4EB48EBCD4
:10137C008FBC8EBC8DBC8DBC4DBC2CB40CB4CBAB1B
:10138C0089A3289B8682E78A09A429A42A9CEEAC0F
:10139C0014D615D615CEF5CD16CEF5CDF1ACD1AC07
:1013AC00F1B40DA4867AE78A48A389ABC9ABEAB33A
:1013BC000BB42BB46CBC6DBC8DBC8DBC6DBC6DBC4E
:1013CC002DB40CACCBA36A93A87AC461867AE88A54
:1013DC00266AA551865145510872C77166616761CD
:1013EC0067618761E8696A82CB8A4CA38EAB4A8AB3
:1013FC00A871C9718861676166596651696A075A33
:10140C008A728A72AB7ACC824E93E961A75987595A
:10141C00E86169728E9B0B83A97AA6598661A769CC
:10142C00A86987698869C869C869A861A8618B7A45
:10143C00CC82EB820C8B8C9BADA36C9B8D9B2C93E9
:10144C00497AC869A8698861A869E8698A82AA7A10
:10145C008B7AAB82A75966596A7A655925498551A9
:10146C00298BA77A298BCC9B0DA42EAC6EB48FBC88
:10147C00AFBC8EBC8DBC8DBC6DB42CB40BB4CAABE4
:10148C0069A32893A682E68A0AA429A42A9CEEB40E
:10149C0015D615D615CEF5CD16CEF5CD12ADF1ACC3
:1014AC00F1B42DAC867AC68A48A368ABC9ABEAB353
:1014BC000BB44BB46CBC8DBC8DBC8DBC8DBC8EBCCC
:1014CC004DB40CACEBA38A9BC882C461657A088BC3
:1014DC000662644965494551497AE87187696761D3
:1014EC0067616761A7692972AB8A4DA3CFB36A8A1A
:1014FC00A871C979A9696761255125494549655183
:10150C008651E859CC820D830D8BC961A759875937
:10151C006651086A496A0762C659C759E869087270
:10152C000872E871C871A869A869A869886109720C
:10153C006A7ACB8A2C932C934C9B4C9B2C938A824F
:10154C00C869C971EA71A869A869C869E8696A7249
:10155C004A72AB7AE9692551C7618659254985518B
:10156C000983A7726A93EDA32DAC6EB48FBCAFBC8C
:10157C00AFBCAEBC8DBC8DBC6CB42CB4EBB3CAABE5
:10158C0068A327938582E68A0AA429A42A9C0EB50F
:10159C0015D615CE15CEF5CD15CEF5CDF2ACF1ACEC
:1015AC00F1B46EACA782C68A289B68ABA9ABEAB330
:1015BC000BB44BB46CBC8DBC8DBC8DBC8DBCAEBCAB
:1015CC006DBC2CB4EBA38B9BE982C5612472E88AB9
:1015DC00C55904414549A659AA82087A8769876981
:1015EC0067616761A761C769497ACB8A0C9B0982DD
:1015FC00C979C979C9718761455986592549A7594E
:10160C006651665187598759A861C861A859A7596D
:10161C004651A759A759A651C759496A69728A8276
:10162C00AA82AA828A82087A8769A869C969A86984
:10163C00C9692A7AAB8A0C936D9BCEAB8DA3EC92C5
:10164C00E971A869A971A971E971A7698661A76196
:10165C00A759096AE96146518659A75945518659D6
:10166C00E98287728B93ECA32DAC6EB48FBCAFBCAC
:10167C00AFC4AEBCADBC8CBC6CB42CB4EBABAAABE5
:10168C0068A307938582E68A2AAC29A42A9C0FB505
:10169C0015D6F5CDF5CDF5CDF5CDF5CDF2ACF1AC4E
:1016AC00F1B48FB4C782C68A279B68A3A9ABEAB3EF
:1016BC000BB44BB44CBC8DBC8DC48DBC8DBCAEBCC2
:1016CC006DBC2DB4ECAB8B9BE98A056A046AE88A85
:1016DC00A5590441A6516972EB8A297A6761886918
:1016EC006861886187618659C7610872297A876940
:1016FC00A8718869C9710972287249724D934A722E
:10170C00665187596751A859C861A8598759A8616A
:10171C00C8616651A759E759CB720C83CA820B8BEF
:10172C002C938EA36EA38B8AC871C971C971A969D8
:10173C008869A869297ACB8A4C9BAEAB6DA3AB8A1E
:10174C00E979A871A971A971C871C8692972A759D9
:10175C00665187516751665186596651665986594B
:10176C00887A87728B930DA42DAC8EB4AFBCAFBCB2
:10177C00AFC4AEBCADBC8CBC6CB42CB4CBB3AAABFC
:10178C0068A307938582078B2AA429A42A9C2FB5CA
:10179C0035D6F5CD15CEF5CDF5CDF5CDF2ACF1AC0C
:1017AC00D0B4AFBCC782C68A079B68A3A9ABEAB307
:1017BC002BB44BB44CBC8DBC8DBCADBCADBCADBC6A
:1017CC006DBC4DB40CACABA30A932672046AC882F0
:1017DC0085594549085A0C830C8B297A47618869CD
:1017EC0068616859675946518659A761A76967614D
:1017FC0088696761A769EC8A2C932C8B2D93C8613F
:10180C00465187596759A859C861C861A861A86130
:10181C0046518759C861CC7A4D8B4D836C8B6C9338
:10182C008D9BCEABAEABAB8AA77187718871A9715A
:10183C00A9716769C869497A8982CA8A6982E8711B
:10184C00A871A971C979A97188690972EC8A8B7A16
:10185C00C861665147514651665186598759655141
:10186C00266A87728B932DAC4DB48EBCAFBCCFC4A3
:10187C00AFC4AEBCADBCACBC6CB42CB4CBABAAABE3
:10188C00489B07938582078B2AA429A42A9C4FB5D1
:10189C0035D6F5CD15CEF5CDF5CDF5CDF2ACF1AC0B
:1018AC00D1B4D0BCC782C68A279B68A3A9ABEAB3C4
:1018BC002BBC4BB44CBC8DBC8DBCADBCADBCCEBC40
:1018CC008DBC6DBC2CB4CBA32A93677AE461877270
:1018DC006449454908624D8BCB82E769665988613A
:1018EC004759275146514651A761C869A761086AF3
:1018FC002972E869A7616D9BADA38D9BEC8AA761EA
:10190C0067598759A86188596759A861C96167598E
:10191C008759A7596A72EC82CF9BAE9B4C8B4C9328
:10192C004C936D9B6DA38A82A86988698869A969A3
:10193C00C971A869A869E871C769E871A769A77135
:10194C00C8718871A971C979A87109720D93AF9B7F
:10195C004A726651875966496651E861875924492C
:10196C00E65987728B934DAC6EB4AFBCAFBCCFC491
:10197C00CFC4AEBCADC4ADBC6DBC2CB4CBABAAABB0
:10198C00489B07938582078B2AA42AA42A9C50BDC6
:10199C0035D6F5CD15CE15CEF5CD15CEF2ACF2B4BF
:1019AC00D1ACD0BC298BA78268A368A3A9ABEAB33E
:1019BC004BBC6CBC6CBC8CBCADBCAEBCCEBCCDBC96
:1019CC00AEBC6DBC4DB4ECA34B93C97AE661E65941
:1019DC0045412541496A4D9328724451C7590862C3
:1019EC0087516651464926516869A971E861864953
:1019FC0007522C7B08620C8B0FACEFABAB822659D9
:101A0C00675987598859885968598859886167591D
:101A1C008759E861EB7AEB82AE9B0FAC2B932B933F
:101A2C002C936DA3AB8A297AC8698859A861885907
:101A3C008859A861C9698861C971A869A871A87118
:101A4C008869A871C9718769C871AB8A4E9B8FA3CD
:101A5C004A7266516651875146490862C7612449EA
:101A6C006441C972AC932DAC6EB4AEBCCFBCCFBCD0
:101A7C00AFC4AEC4AEC48DBC4DBC2CB4CBB38AAB1E
:101A8C00489B0793858248932AAC4AA42A9C91C50B
:101A9C0015D616CE15CE15CE15CEF5CDF2ACF2ACC4
:101AAC00D1ACF1BC2A93C782699B89A3C9ABEAB3B9
:101ABC002BBC4BBC6CB48DBCCEBCEEC4EEBCCEBC53
:101ACC00AEBC6DB42DB4ECAB8C9B0A83C659C33041
:101ADC0025418649AB7ACB82C761286ACB7AAA7238
:101AEC00096266516749A861687168698751A641A6
:101AFC002852CA6AAA6AEB7ACFA36E9B297A25511F
:101B0C0046594651675167518859A961C96188592D
:101B1C00E8616651496A6D936D9BCEABADAB6DA31D
:101B2C002C9BAA8AE871A869C969C9616751C8590F
:101B3C00A859A861A861C969CA718969A869A86905
:101B4C00A869C871E971E871297AAB8AEC92EC8AC0
:101B5C00EC8AE8616651664986492862E86124414D
:101B6C008441E96ACC934EAC6EB4AEBCCEBCCFBC57
:101B7C00AEC4AEC4AEBC8DBC4DBC0CBCCBAB8AA34E
:101B8C00489B0793858248932AA44AA42B9C91C511
:101B9C0015D616CE15CE15CE15CE15CEF2ACF1ACA3
:101BAC00D1B411BD6A93C782699BA9ABCAB30AB4FD
:101BBC004BBC6CBC8DBC8DBCAEBC8EBCCFBCCFBC8E
:101BCC00AFC48EBC4EB42DACCD9B4B8B2862A230D7
:101BDC0045412541496A8A72086A4D936D8B0C7B8D
:101BEC008B72A7598751A8616869A8694649285A18
:101BFC00AE83CA62EA72CE93AE9B8E9B6A82E86910
:101C0C0029720962E859875167518751A859675160
:101C1C00C8598651E761EB8A0B93EFABADAB2C9BAC
:101C2C00CB92297AC871A871097AE979C869C86117
:101C3C006659A861A861C961886188616859A96100
:101C4C00A969A86988698769E8714A7A0D8BD0A35C
:101C5C00AF93C759C751C6518649AA724972E3401E
:101C6C008441E96ACC934EAC6EB4AFBCCFBCCEBC55
:101C7C00CEC4AEBCAEBC8DBC4CBC0CB4CAAB89A340
:101C8C00279B0793857A48932AAC2AA44B9C91C531
:101C9C0015D616CE15CE15CE15CEF5CDF1ACF1ACC4
:101CAC00D1B411C5AB9BC782699BCAABEAB30AB46A
:101CBC002BB44CB46DBC8EBCAFBCAFBCAFBCAFBC1A
:101CCC00AFBC8FBC4EBC2EACAD9B2B8B696AE33882
:101CDC0065490439C759296AE7612C8B6D8BEB7AFE
:101CEC00AB722962C859A8596759C86145496962DC
:101CFC000F940B738962CE93EB7A4D936D9BCB82D1
:101D0C00CB82AA7ACB7A6A6AC7516649C751C7593E
:101D1C00A751C761E76128722D9BEFB3AEABAA82C6
:101D2C00E87987718771E9796B8AAC92AB822972F9
:101D3C00A761C861A759875947516759885968598C
:101D4C0088598861C9614A720D83AF930C7B8A6A8A
:101D5C00EB726962E7516549A6510C83AB7A044179
:101D6C008541E972EC9B4EAC6EB4AFBCCFBCEEBC03
:101D7C00CEC4AEBCADBC8DBC4CBC0BB4AAAB89A361
:101D8C00279B0693858248934AAC2AA44BA4B1C5E1
:101D9C0015D616CE15CE15CE15CEF5CDF1ACF1ACC3
:101DAC00D1B411BDCB9BE78A899BEAAB0BB42BB4A6
:101DBC004CBC4DBC4DB46EB46EB44FB4B0BC90BC06
:101DCC0090BC90C490BC6FB42FACCE9BCA726549CA
:101DDC004541454186518651A7590C8B4D8B0B7B48
:101DEC00AA72AB724962A751A759675166490C7B1D
:101DFC006D8B2B7B895A6D83CB7A496A8D9B4C9367
:101E0C000B8BAA7A0C83EB7AAA726962696AAB7241
:101E1C00086A86598661A7690C93AB8AAB92087ADB
:101E2C00A771A771A8798B922DA3CFB30C930C83B8
:101E3C00CB7A0862A75966518759886188616861B5
:101E4C00C9614B6A8C6AAC628B5A8A52684A685276
:101E5C00E9620A732862665187596B7AAB8224490E
:101E6C00A5490A73ED9B4EB48EBCCFC4EFBCEFBC3E
:101E7C00CEC4AEBC8DBC6CBC2BB40BB4CAAB89A3AA
:101E8C00479B0793A58268934AAC29A44BA4B1C580
:101E9C0035D616CE16CE15CE15CE15CEF1ACF1AC80
:101EAC00F1B411BDECA3088B8A9BEBABEBAB0BAC89
:101EBC000CAC0CAC0DAC2EAC4FB470B42FACCEA3A0
:101ECC008DA36C9BEB8ACA82897A8972696A85496F
:101EDC000439664925414549A7592D8B2C832C8300
:101EEC00EB7ACB722962A749A7514541A751AA7237
:101EFC004D8B0B7BA9622B73AA7289728D938D9B70
:101F0C006C93EB820B83EB820B7BEB7A496A8A72C4
:101F1C00AB82A7618761E8718B824A7A8761A76976
:101F2C00E871C871A771CC926EA3EFAB6D932B8344
:101F3C000B83696A2962A859A861C969A869C9692A
:101F4C002A6A6C628C5A6B4A8B4AAA4AA94AAC73AD
:101F5C008B7BE972076286594659A86929724549F3
:101F6C0085492A7BCD9B4EB48FBCCFC4EFBCEFC44C
:101F7C00EFC4AEBC8DBC6CB42BB40BB4CAABAAAB67
:101F8C00489B0793A582889B4AAC29A44BA4B1C556
:101F9C0035D616CE16CE15CE15CE15CEF1AC12B555
:101FAC00F1B411BD0DA4098B8A9BCBA3CBA30CACB4
:101FBC002DB40DAC8C9BEA8A687A076AC7616659A6
:101FCC0065596551244903496551C659E75945413D
:101FDC00243986492541464966518A722C830B7BEC
:101FEC000C7BCB72E8598641A6498641E859A6512B
:101FFC008A728A6AA962895AC7514D8BAD93AD9B7F
:10200C006C93EB8A0C8B2C8B0B838972EB82CB82BF
:10201C004E9B4A82A869A769A761C861C859E8594B
:10202C00296AA76187618A820B8B4B8BAD932B7BC3
:10203C000B7BEB7ACB7A4A72A869C969C8594A6298
:10204C008B6A8C628C5A8C52AB52EB5A6C6B8752EB
:10205C00A862A96AC6594551265947598761455105
:10206C0065414B7BCD9B6FB4AFBCCFC4EFC4EFC409
:10207C00EFC4AEBC8DBC6CB42BB40BB4CAABAAA36E
:10208C00489B0793A582889B4AAC29A44BA4B1C555
:10209C0035D616CE16CE15CE16CE16CED1ACF2B493
:1020AC00F1B411BD2EA4298BAB9BCBA3CCA38B9BE2
:1020BC000A8B6772C661855965598659865946518E
:1020CC006651865945514549E7618A72CB72A649DA
:1020DC006541A7516649454946496A6A6D8BAA72A2
:1020EC00CA72AA6A085AA749A641E749085A696AF6
:1020FC00286AC7514852EA6269622C83EA7A6C9367
:10210C00AEA30B938A8289820C8BEC8AAB826A7A9F
:10211C008B82097A8769A869A861E961295AE85113
:10212C006A624962AB7A2C8B2C83EA7A6C8B6C8357
:10213C006C836D830C83CC82E969A8618A62EB6243
:10214C008A5A4A528C620D6B2D6B4D738D73E6411E
:10215C00064A685ACA72296A265167592659665125
:10216C0065496C83EE9B8FB4D0C4D0C4F0C4F0C46A
:10217C00EFC4AEBC8DBC6CB42CB40BB4CBABAAAB63
:10218C00489B0793A582889B4AAC29A44BA4B1C554
:10219C0035D616CE16CE15CE16CE16CEF2ACF2AC79
:1021AC00F1B4F2BC4FAC2A836B930A8B4772C561B6
:1021BC008459655965596659665987596651A759A5
:1021CC006651875166496549A651696ACB72496265
:1021DC0024398649864966490541296A4D8BCA7A54
:1021EC000B7BAA72A751A749E749074A085AE85935
:1021FC006972E7596852CA62CB6AEB72EA7AAD939C
:10220C00AEA36DA36DA369826A82EC92497AA86928
:10221C0087696769C9718861A8598B6A6A5A6A5259
:10222C00AB62CB6A4D836D8B8E936C8B8C8B8C8B52
:10223C004B7B2C7B2C7BAB6A6B6AAB6AAA5A894AA8
:10224C00EB624D7B2C83EC82AE938E8B8E83895A02
:10225C00C641AA622C7B8E8B6972E869A7616651B4
:10226C0065416C830EA470B4B0BC11CD11C5F0C423
:10227C00F0C4CFC48EBC6DB42CB4EBABABABAAA387
:10228C0089A32793657A689B4AAC4AA46BA491C531
:10229C0035D616CEF5CDF5C516CE15CEF2ACF2ACC4
:1022AC00F2B453C5B1B4A972476A63512349434987
:1022BC00855924494551254967598759A75967516B
:1022CC00675166494649875149628A6A6962285A48
:1022DC0045416549664945412549E8616E930C8B3A
:1022EC000C836A6A86516649E749284A085AC759D5
:1022FC00496AEB72895A4C732C734C7B4C7B4C8324
:10230C002C8B4D9BAA8A8B8A087AC871C871C871AC
:10231C00C8718871C971C861296AAB6AAB5A6A52B3
:10232C004A52AB62EC724D834C832B7B2B7B8D839F
:10233C008C838D836D7B2C73CB6A8B5AEB5A0B631E
:10234C002C7B8D8BEB826D9B4D938A72495A4D6B16
:10235C00EC628A52AA626D8B4D936D9BE869665153
:10236C00E7518D832FA470B412CD12CD32CD11C58F
:10237C00F1C4AFBC4EB42DACECABCBABCBAB6A9BCE
:10238C00289B2893A682689B4AAC4AA44A9CB1C558
:10239C0035D616CE15CE36CE36CEF5CDF2ACD2AC79
:1023AC00F2B433BD0E9CA551A5598551076AA659A7
:1023BC00E761C761496A086A096A875987512641EA
:1023CC00674946412541A751AB72AB6AEB728A6AE9
:1023DC00C751085AE859254987518B7A8A7A69720C
:1023EC006A72E86166518751E7494852495AC751A8
:1023FC002862CB72AA62EB6A8A62AA626D836C8BCA
:10240C000C8BEC8A297A6669097AC871C879A8712B
:10241C00E979C871A86187590962CC728A6229521C
:10242C00E8496A5AAB622C732C734C7B4C7BAD8B9A
:10243C002B7B0B6BEB6A2C73EC6AAB62295A285A18
:10244C004C83EB820B8B6D938D8B8962E7410B5B1D
:10245C00EB5A694AEB6A8E8B2C8B8A82E869454968
:10246C0065410752E659276ACA822B8B0EA44FACE2
:10247C0090BC90BC2EACCCA38BA36A9B8BA36A9B09
:10248C0049930893A682A99B6BAC4AA46BA4D2CDAA
:10249C0035D616CE36CE36D636CE15CEF2ACF2AC0E
:1024AC0012B550A448624441286ACB7A286A086263
:1024BC00296A496AAA7A8A7A8A7A086A87512541EE
:1024CC0067494649053987498B6A8B6ACB726A6AB8
:1024DC00E759496AE86104414651296AA761A76135
:1024EC00A76187598761E859285A495A295A285AA5
:1024FC0007526962EB722C73695AAA5AEE8B0B7BEA
:10250C002C830B83EC8A297AC871297A097A2A825E
:10251C004E9B0D938B7A296A2962AB6ACB6A6A5AF5
:10252C004952AA5AEB624C6B6D738D7B0B738D8386
:10253C000B7B2C7B0B732C7B6962E751C759C761F2
:10254C00AA7ACB7A8A72EB7A8962AA6227420B63E7
:10255C00AE732C6B8A62496A29724559C869A759AE
:10256C006541A54144492449244944510762C66147
:10257C00E769897A2B8B8C9B8CA34B9B2B934A936F
:10258C002993088BA782899B4BAC4AA48CACD2CDE7
:10259C0035D616D636D615CEF5CD36CEF2AC12B51E
:1025AC0033BDCE9324418551496A8A72086269729F
:1025BC00496A8A726972EB82CB82286A08628751F7
:1025CC004649464926418749095A6A6A6A6A8A72A3
:1025DC00496A8A72E861465125514659A869C86909
:1025EC0087618761A869E9612962495A495AAA6ACF
:1025FC00074A8A628A6A6D83AA62EB624C7BEA7232
:10260C00285A0B7BEC7A69722972C869E869EC92DA
:10261C00F0AB6E93EC82CB7ACB7A8A6A2C7BCA6253
:10262C00AA5A8952A952A94A0B5B2C6BCA6A2C7BF9
:10263C00EB7A6E934D930D8B296AA759C761A659F6
:10264C00496A6A6A8A626A5AE7410B6BAA5AA541BF
:10265C0027524C832C8386516659A861C8616651F8
:10266C000852695A696A486A286AA65965516551BF
:10267C00865986596559855907726982CA8AE98AC9
:10268C00E98AE88AC782CA9B4BAC4AA48CACF2D5C7
:10269C0035D6F5CD36D615CE15CE36D612B5F1AC1F
:1026AC0033BD70A4C65186498651A751AA72CB7A04
:1026BC008A722C83CB7AEB7ACA7AAA7A8A72E85914
:1026CC0025412641264167498749095A8B728A72EE
:1026DC006A728A7AE869C761465946598761A8695E
:1026EC0088698869A869A86129626A626A628A62D3
:1026FC0069528A62C751AB72CB62AA5A6C7BCA62AE
:10270C002B732B73AA6ACA728A72296AC861EC8A03
:10271C00EC82EB82CB7A69722C8BAA7A8D8B2C7B18
:10272C002C73CA62CA52894A0B634C73AE8BAF933B
:10273C000C8B0D93EC8ACB82496A286A6972696AA0
:10274C00CB6A2852AB5A2942A7314952695A485A86
:10275C00896A2C8B4D93086A876187618759E438A5
:10276C00695A895A696A496A0C8B4A72296AA7594B
:10277C0066518759A761A76186616561A661687A10
:10278C00887A46726672CBA36BAC099CACAC13D640
:10279C0056DE15CE15D635D636CEF5CD12B5F1ACF6
:1027AC0012B533BD4C83854924416649E8598A6A80
:1027BC00AA724C83AA72486AA97AEA82286A86515C
:1027CC00254146494641464146498751E861665193
:1027DC00A76186616659A769A869A869A869A869EB
:1027EC006769A871A971A8692A6A8A6A495A495AFB
:1027FC00895AA95AC8592962EB6A0B632B6B0A6B6D
:10280C004B6B4B6B2B6BAA62EC72E8592962AB7267
:10281C008A6AEB7A4C83CA7A2C8B0B8B2C932C9375
:10282C002C8B0B73AA628A5ACB620C7329628B7A3B
:10283C004A722972296A696A8962A962895ACA62CA
:10284C00AA5A8A526A4A0C5B494A69520852E751A1
:10285C0028622C934D9B08728769876146512541EC
:10286C008962CA628A6A496AAB7A8B7A8B7209620C
:10287C00875967598759675987618761C761CA82C8
:10288C002A93C882877AAA9B4BAC4AA4ACACB1CD34
:10289C0015D615CE16D635D615CEF5CDF1AC12B55E
:1028AC00F1AC33BD50A4E7594549254166516A72D4
:1028BC00AA7A8A72696A8972CA7A276A865125410C
:1028CC00664987516749264166496649254904414D
:1028DC00A7594551A761AB8AEC92AB8A8B8A297AAE
:1028EC00A871A871A871A8694A6A8A6A495A8A5A51
:1028FC004852CA62E8592962695A2C6B0B6B4B73AC
:10290C000A632B63EA5AEA62AA62CB6ACB6A8A62CE
:10291C008A62485A0B734C830B832C930C934D9304
:10292C004D934C83AA6A8A628A5ACB6A29620C83B9
:10293C00ED826A728A6ACA6A0B6BEA5AAA5ACB5A35
:10294C002C638A4AAB4A2D630C5B6A528A62A6518D
:10295C00E7614D9BCC928769A869A8696759E859CA
:10296C002852AA62CB722C836A720D83AC7A0962EC
:10297C0087516751675166518759A761697AEB8A0C
:10298C006C9B6B93877A6672288B0BA42BA4CEB4AA
:10299C0051BDF4CD35D615CEF5CD16D6F1AC12B55C
:1029AC00F2B4F2B4F3B48A72444945494551C86152
:1029BC00086AE869A7598651A75945498751875133
:1029CC004649464966518751664966492541254124
:1029DC0087516649A6590C93CFAB2C9B2C9BEB9241
:1029EC006A8AA771A771C76928628962EB6ACA6291
:1029FC006962CB72C859E8598A62EB6AEB72A962B8
:102A0C00A95AEA5AEA5AEA52CB62EB6A0C6B89521F
:102A1C000B630B630B63EA622C7BAA724D832D83D1
:102A2C004D8B2C7BEB72AA62EA5AA94AEB5AAB6229
:102A3C004A6229626A62AA622C63894AEC6A295248
:102A4C004A52ED62CC5AAB52CC5A6A528A628651C7
:102A5C00E8690C93A8718769886988592649496285
:102A6C008A6A285AEB7A8A6A6A6ACB7A0C7B496240
:102A7C008751865186514549A659AA7A0C93EB8AFF
:102A8C000A8B2A8BE982276A85592672AA9B4BAC42
:102A9C004BA4ADACD3CD35D6D5CD37D6F2AC12B523
:102AAC00F2B412B513BDCA7A4549455187616659CE
:102ABC002651265125492549675146498751674971
:102ACC002641464925496651E861CC7A2962C851AC
:102ADC008749864986592C93AEAB6C9B2B934C9BA8
:102AEC002CA3498A087A2872EB720B6B4C73CA6A56
:102AFC008A6ACB7AC859E859AA6ACB6ACA6AAA6A9E
:102B0C0089620B6BA952CA52EB62EB62AA52CA528F
:102B1C00EB5A4C6BA952A9524C73EB6AAA620C7318
:102B2C006D838962CA620B63894A0B536942AB5A43
:102B3C004A52CC6AAB628A5ACA520B5B895ACB6A2C
:102B4C00AB624A528B5ACC5A0D63CC62A749A7513F
:102B5C00C869097AA869A8694759A85946496649B4
:102B6C00A751865129624962CB72EB724D83EC7A84
:102B7C0029628649654986510862AA7AEB8ACA8A13
:102B8C00E982E982C97A69728661856129932BACE5
:102B9C0029A46BA491C535D616CED6CD12B5F1AC01
:102BAC00D1ACF2B413BDEB7A45494551665946593F
:102BBC002651465146514651875987514641264127
:102BCC004649464905412962EC7ACC7A4A62A751BA
:102BDC0066496651A659CA824C9B2B93EA824C9348
:102BEC006DA3EB92AA82AA7A4C7BCA622B6BAA6267
:102BFC00AA6A8A6AC851E851AB62AA62AA6A696A6F
:102C0C00AA72075A0B6B895AA95A2C6BAA520B5BE6
:102C1C008A52AA5A484ACA52EA5A0B63284AEB62A9
:102C2C006D73CB62EA620B630B63CB5AAA52CB5A1D
:102C3C004D6BAB62EC624D6BCA5ACA5ACA62AA623D
:102C4C00CB62CB62EC628B5A2952A7498751A8619F
:102C5C0067618761E869C8698759A8598759E44051
:102C6C00865186516549664949620862AB72AB72FE
:102C7C00296266494649A75129628A7AAA82A982A1
:102C8C000A830A8389724972A659E669AAA32BA4FE
:102C9C002A9CEDACF3CD35CE16CE16CE12B5F1ACDA
:102CAC00D1ACF2B413BD0B838651C761665966591A
:102CBC00665967596759665167514649664987494C
:102CCC0025414541A75149626A6ACB72096246495E
:102CDC0087514649A759E869CB8A0B8B4B8B8D934F
:102CEC004C932C930C8B0B836D830B6BCA62CB6256
:102CFC00AB6A0962C851C8516A5A8A5A8A6A4862D0
:102D0C00286AA651696A0B7328520B6B4C63CA5222
:102D1C00CB626A5A69522C63EA520B5B2C63CB5A16
:102D2C00EB5A4C6B0B63484AEB624D734D6BCB5AB1
:102D3C008A520C638E73EB620B6BA962CA6AAA6A25
:102D4C00EA6ACA628A5AEB6A0C73EC7A296AC8611D
:102D5C006659C869E869A7614A72296AE969265106
:102D6C008759A7594549E44066516651C759C85916
:102D7C008751675167516651A7596A72CB82CB82D2
:102D8C002B8B4B8B8972E7616451E9824CAC0AA4A2
:102D9C002A9C90C554D6F4C5F5C517CE12B5F2AC25
:102DAC00F2B412BD33BD8D8B286AAA7A4A7AA76118
:102DBC004659465966596651465166518751C85114
:102DCC006A620C73CA6AEB72CB728A6A6A6A67515E
:102DDC00875946518759A761AA826C9B4C8BCE9B15
:102DEC004C93ADA38E9B0C830B732B73EB622C73E8
:102DFC00CB72C759C859C851295A6A5AAA6A28624B
:102E0C00086A0872286A6D8B2B7B685AEA5A484A02
:102E1C002D738A6A6A5AAA5A2B5BEA526D630C5B51
:102E2C004C63EB5A2B638952E749EB6A0C73EC6ADF
:102E3C008A52CB52EB5A0B63695AAA6A686A2B8383
:102E4C004B7B2B6B4B6BCE834D7B8E8B8B72A85934
:102E5C00A861E861E861086A0C8B0C8B8B7AC861FD
:102E6C0046596651875945514651665166514751ED
:102E7C00475187598859465167592A72AB82CB8280
:102E8C00CA7ACA7A8A72A6598451CB9B2BA42AA4DB
:102E9C008DACD2C554D634CE36CE16CE12B512B5B4
:102EAC0012B512BD33BDCE934972CB82CB8AA769C2
:102EBC004659675967596651A7594A6AEC7ACC72D8
:102ECC00EC72EB7207526962AA6A29628B72A8597A
:102EDC00675987616659A76128720B8B8C93CD9BC0
:102EEC002B8B6C9BAE9B2C83AA6AEB6AEB722D7BB3
:102EFC00AB728759A859A859E8598A62AA6A4862DC
:102F0C000872EB928D9B8D9B0F9CEA6A6852AA62A9
:102F1C00AB72E861AB724952EB5AEB52CB520C5B81
:102F2C006D630B5BEB5ACB62295AC7516B6A6E838C
:102F3C006952CA526D6BAA5ACA6A2C838D9BEEA336
:102F4C00CD932A7367520A6B0B736E8B6B72875916
:102F5C00C8618759296A0C8B2C938EA3CC8A6B82FF
:102F6C00A8696659A761A7614651465167518759AF
:102F7C00675967598859675988590972AB82EC8A25
:102F8C00AA7A696A8A72C65926624CAC4AA44AA4C7
:102F9C002FB514CE55CE35CE36CE16CE12B512B5C3
:102FAC00F2B412B533BDEF9B486A8A7A297266591E
:102FBC00465967616759465187592A6AA751C751C3
:102FCC006541E7518962485AE751EC7A8B72A861E6
:102FDC004759886146598761A7614872CD9B8D9B83
:102FEC00EB8A697A0B8BEB82EB7AEB7AEB7A8A724F
:102FFC002972A761A861A761A7596A6A8962CA6A1E
:10300C00286A8DA3AEA3AD9BEEA3CD93EA6A6D8B1C
:10301C006A7A67618B7A6A6ACB6ACA5AEC62AA527C
:10302C00CB520B5BAA5A6A5AAC72C859C8590D7B61
:10303C004D7B69522C6B8D7BCE93EE9B6C93EEA3E8
:10304C0090AC2A73E549E96A8D832C7B2962875100
:10305C00C859C8618A7A8D9B8D9B6D9BEC8ACC8AF2
:10306C004A7AA761A7612972086A2549675188596C
:10307C0067594751675968598861C869CC820C8B6C
:10308C00CA7A8A728B72A659A77A6BAC4AAC099C25
:10309C0051BD55D634CE14C6F5C516CE12B512B5E3
:1030AC00F2B412BD54C52FA4486A4972C769665957
:1030BC006661465946596759265126494649254164
:1030CC0086496962A9620B732C7B4D8B8B7AA86144
:1030DC00686167696761666186610872EA820A8B5A
:1030EC004C93487AAA82AA82EB828A72EB82086A93
:1030FC00E869E971A869876187610862CA6AC96A67
:10310C006C932B934C9BADA34FB4EEA36C8B4C8B5D
:10311C008B8AC871A8698A7AAA72E7516A5ACB62FB
:10312C004D6B294A49520D7B8C7A87590A6A8B7AE6
:10313C002D834C7B8962EA72AD9350ACCEA38D9BF0
:10314C000E9C2A7B4B7B4B7BCA72085AA751A85901
:10315C00A8618B7ACB822C8B2EAC8C9BEC92AB8A9D
:10316C006A82C769A7612C8B2D8B86594651675192
:10317C00475147516751675947516759C869A7610A
:10318C00C75908622A6A865108836BAC4AAC2A9CE0
:10319C00B2C556D614CE35CE16CE37D612B532B5FC
:1031AC0032BD12BD33BD70AC276A8559865966593C
:1031BC00665966596659465167514651865166495A
:1031CC004862285A896A0B73CF930C834A72A86998
:1031DC006869886967696761C869A661076A0B8B4A
:1031EC008DA38DA38982697A086AC761A659E8699B
:1031FC00C8698769A871C871C871E869C9724B83BD
:10320C006C932B932B938CA3CEABEEAB2C8B2C9380
:10321C00AB928771E879497A8659E759A7494A5A96
:10322C008A62E851C8510962C9618861A8696B82D8
:10323C004D934D8B2C83A972EA7A0F9CCE934C8BB9
:10324C00EE9B6C8BEE9B4C8BC759A759A8596859B0
:10325C00A961AC820C8B2B83CC936B8B2C936EA3C0
:10326C00E871A661E769CB824D93E8610549A759DE
:10327C0067512649C861C9616751675966596659D2
:10328C00A75986514651A65969932AAC49A44AA418
:10329C00B3CD36D615CE35CE16D6F6CD12B512B573
:1032AC0032B512B553C550A4A6594451655966613F
:1032BC00A76186616651665966516649454908623F
:1032CC00AA720B7BCA72EB7AAA72296AC869A869BE
:1032DC00A9718871886987698769E771CA8A6C9B4B
:1032EC004C9BAEA36D9B0C93076AA659C761C76133
:1032FC00A769A769C871A871A871E8716C8B4C8B10
:10330C006C9B8DA38DA34B9B6CA3CEAB0B93698253
:10331C00C779E8814A82AFAB6A82E769C861875195
:10332C00A751C859C859A8598861C971C871E971A0
:10333C00AB8A0C93EB8A2C8B2B830B7BEA720B7B6B
:10334C00EE9B0FA4EB828A72C759A7598859E96979
:10335C006859E969CB8A4C8BAC93AC93AEA3EC8ADD
:10336C00C769C7698A7A0C8B4D8B8A72254146498D
:10337C0066492541464909626A72875966598761CF
:10338C008659665105496451A99B49AC49A46BA463
:10339C00D4CD36D615CE15CE16D6F6CDF2AC12B59A
:1033AC0012B5F1B453C54FA464496551E76949722C
:1033BC008A7AC8696659875966514649E859AB7289
:1033CC00AA72AA720B7BCB7A286A6659A7616869C4
:1033DC00A96967698871887146614982AEA3CEA3D9
:1033EC000B8BCA822C8BEFA32C8B286AC761A75935
:1033FC0086598661A769C871E87949820B93AEA397
:10340C00EEB34C9B4C9B6DA34CA3CA92487A0872AA
:10341C00A771C879A769EFAB8DA3EB8A086AA7617E
:10342C00C861A861A861C969A8696769E979A871C7
:10343C004A8A087A6982A97A0B83A96AAA72EB7AFA
:10344C006C8BAE9B086AC761E8598751A859C96152
:10345C006759A8698A82EB828C93EE9BEB8AE871A0
:10346C006659A661EB82AE93AE932C83664966498E
:10347C008751864946492541496A8A726659665977
:10348C008659865925514351CAA34AAC29A48CAC00
:10349C00D4CD36D615CE15CE16D6F6D5F1ACF1ACBC
:1034AC00D1ACB1AC12BD50A46551E7618A7AEB8AFC
:1034BC00EC8AC761255166514549254108624D8BFF
:1034CC00CB7AEB7A6972AA7AE761A761E971A8698C
:1034DC00A9716869676967698769AB8A6D9B4C9349
:1034EC004C932C8B897A2C8BAE934D8B2C83EB824B
:1034FC006A72A7698769A771C871E8794982CB920A
:10350C00EB9ACB92CA8ACA8A4982E779A66186610C
:10351C00E871E8710872AEA3EEAB0B93AA82C76197
:10352C008761876167618869C971E9798871E88108
:10353C00A7790882E77189826872EA7A6C8B2C8B86
:10354C00AA7A086AC861A759C861C859C86188595C
:10355C008861E9710972AA826D934C932972A761F3
:10356C00A661E869CB824C8B4C832C8386498649B7
:10357C006649254166498649AA72CB7A29728661C9
:10358C006659A7618659C561EAA32AAC2AA4CDACB9
:10359C00F4CD16CE15CE15CE16D6F6D5D1ACD1AC03
:1035AC00D1AC90ACF1B470ACC5594872CA820C8BDA
:1035BC00CB8AA7612549665146494649A751AA724B
:1035CC000C83EB82AA7AC761E769A761A869A8692D
:1035DC00C969A8698769C8718B8A0D9B2C932C9338
:1035EC004D93EC82C7590762AA72AA720C83EC82C3
:1035FC006A72C869A769A871A871A771C771C771E8
:10360C00A7794982087AE8716669A769E8698659D9
:10361C008761A76949728D9BCEAB8DA34C93086AC9
:10362C008761A869A871A871C971E979C879E8811D
:10363C006671C779087A6DA36D9BEEA3AD9B2C9335
:10364C00AA7A6659C761C861C861E961E961A76175
:10365C00A869C871A869AB8A0D9B0972E869C86929
:10366C00C7616A72CB7AAA72CB724D83085A6541D4
:10367C006641664166418649AA72AA72697A865980
:10368C00665165518559A77A2BAC2AAC0AA4EFB4C4
:10369C0015D636CE35CE15CE16D6F5D5F1ACF1AC59
:1036AC00D1ACB1ACD1B490AC27626872AA7AEB827F
:1036BC00697286594549664966496649C7516A6ABD
:1036CC00AA722C8B6972A66108728A82C869A86179
:1036DC008861C869C8698B8A2D9BAB8A8B8AAB8A37
:1036EC00297287596651A751A7518751C759A759B4
:1036FC00A759A761C871C871A879E981A771C87960
:10370C008771A7716661A76167618761A759E861D5
:10371C00A761A76108728D9B8DA38D9BAD9B697A68
:10372C00A7698769A871C979A8718871E979097A3B
:10373C00CB9AAA928DABCEABCEAB0B8B6C934C933E
:10374C008D9B69728759C861A861E969C869C869A4
:10375C00C8698769A8712A822A82A871A869A86198
:10376C006759096AAB7A0C83EC7A4D83495A45390F
:10377C004541864166492541E8598A722872086A92
:10378C002972E7618459298B4BAC4BAC2BA430BD0F
:10379C0035D635CE35CE15CE16D6F5D5F2B412B506
:1037AC00F1B4F2B4D1B4D1B4C97A6872AA7AAA7A53
:1037BC00A76145516649454966494641E851AA7297
:1037CC00CB7A8A7A28726559CB8AAFA3AB82C8614F
:1037DC008759A861E9694A824A82A8718769676931
:1037EC0067618761A75946514649C859A759A759D6
:1037FC00C861C869C971A87168798879C879C879AC
:10380C00E979E979C8698659A8612A726A6A8B7262
:10381C00A7616661A6614C9B8DA3ADA30EA4897AAA
:10382C00A661C769C871687188712A820DA34DA3FE
:10383C00AEABCEB3AEAB6DA3EB920B934B93AC9BF9
:10384C000FAC0B8B865987616869A971A879C87907
:10385C00A871C871C97188716871CA79C971A86178
:10386C00875987596A722D83CB72EC72E851664185
:10387C0086416641C7516A6A8A6A496A897A0B8BA2
:10388C000C8BCB82266A69932BAC2AA44CA492C5D0
:10389C0035D615CE35CE15CE16D6F5CD12B512B50C
:1038AC00F1AC12B5D1B412BD4B8B897ACA82AA8203
:1038BC00655945518659464987518651A751AB7276
:1038CC00286AC761A761C769AB822D93EC8AA75997
:1038DC008759C861C869C8698769E979C979A871C4
:1038EC00C871A86987596759675946516759C861A2
:1038FC00C8698869A871A979A981A981A879097A67
:10390C00AB928B8AAB82296AAB7A2D8BEC7ACB7219
:10391C006A728A82697ACB8A2B93CEA30EACCEA321
:10392C004D9BCB8A4A82097A8871A87129826A8256
:10393C0069826982EB92287AE8796DA36B9BADA3BF
:10394C00CEA3AA7A865987618869A979A979A879B9
:10395C00A879A871C971A9718971A971C9716761B7
:10396C00E969A759496A8A7229620C7B6A624641E5
:10397C006A62CB6A295AEB7A4C83CA726872AA7A49
:10398C00086AAA7A6772AA9B4BAC2AA48DACD3CDD9
:10399C0055D615C636CE16CE16CEF5D533B5F2B4F1
:1039AC0033B512B512B532BD0EA4A97A0B8B898230
:1039BC00A761665966598759C86166516659296A63
:1039CC0086592549A7594A720C83CB7AC759865117
:1039DC00A759A76109722A82A871C879C871C871E0
:1039EC00C871A869A869886188618861A8698869B3
:1039FC0088698871A871A97989798879A771CB921E
:103A0C00EC920C9BEB8A6D93CA7A2B830B7BEB7A33
:103A1C00AA722C8B2C8BCB8A4D9B2C9BCEABCEAB1A
:103A2C00CEAB2C9B4DA32D9B8B8A087AC871A771AA
:103A3C00C871A771A771A771C8798B926DA3EFB3E9
:103A4C008DA32C93E86966616761A871A871887968
:103A5C00A879C979C9818871C9798871A871C87127
:103A6C00AB820B8B2C8BA9726549CB72EC72C75154
:103A7C00EC7AEC7ACB72AA6AEA72886AE659C65971
:103A8C006651865946720BA44AA44A9CEEAC14D6D5
:103A9C0035CE35CE36CE16CE16D6D5CD13B513B50E
:103AAC0012B5F2B412B512BD90ACA97AEB8A697A50
:103ABC006661866186614659A76186596659C761F8
:103ACC00876166594651A759096AE861E7596972D5
:103ADC00286AC761497A4A82A8792982C879C8714B
:103AEC00C871E971C871A869A869C971C871C87130
:103AFC00A871887188718871897988794A8A6EABC6
:103B0C008EAB4C9BAA824C93EA82EA7A0A7BA9720E
:103B1C002B836C930B8BC769EB928EAB8DA38DA310
:103B2C004B9B4C9B6DA3AEABAFAB4D9BC871C771A0
:103B3C00A871E979E979C879C879A8796A8AEC9287
:103B4C004D9B8EA38B82876146618769C871C97949
:103B5C00A8798871A8798871C979C871C8718A8265
:103B6C00AEA36D9B4C936C930B83AA72EC7AC751EA
:103B7C00CB72EC72CB72696AC972E97AA972076A64
:103B8C0087596559C8824BAC4AA42A9C2FB534D6A8
:103B9C0035CE35CE16CEF6CD16CEF5CD13B533B516
:103BAC00F2ACF2AC12B5F2B4F2BCA97A697228721A
:103BBC0004516661A769A769E869C761866186597E
:103BCC008759A75967598759A7596651E7610B83DC
:103BDC002C8BEB8A0B93EB92EC9A2DA36A8AE879E7
:103BEC00A871C871C979C971C971E971E971C971D3
:103BFC00C869A869C871C971A8718869097A8A8A63
:103C0C000C9B4C9B0B936D9B6C934B8BE97A2B838E
:103C1C004C8BAD9B6D9BCB8A8A822C9B6C9B8CA313
:103C2C002B938DA32C93EB92EB8A297AA769A86925
:103C3C008769C97188716869C9798771A771C771FA
:103C4C002982AB8AAB8AC8718769A869A869A871EF
:103C5C00C871C971C871C8718871097AAB82EC8A54
:103C6C00CEA38DA38DA36C938D9B6972AA7286498A
:103C7C004962EC720C7BCA72CA7A4B8B6C93897258
:103C8C00086A855949936BAC2AA42A9C71BD35D618
:103C9C0035CE35CE16CEF6CD16CEF5CDF3B413B556
:103CAC0013B512B512B5F1ACF2BC0A7B076A086AFF
:103CBC0025598661497AEC92EB8A497A086AE86957
:103CCC00C761875966598759875186518A722C8BDF
:103CDC000B832C8B8DA38DA38DAB0C9BAB9209828C
:103CEC00A871A87188718769A869E971A869A76921
:103CFC008761665966598761C869C8718769866921
:103D0C004982EB922C9B2C93CA82A97A2B8B8C9395
:103D1C000B836C934C93AA82456169824B9B6C9B81
:103D2C006C9B8DA3CA8A2872086A8761A861A869EE
:103D3C006761886988698869A971C971C871A7693F
:103D4C00A771A871E979C871C871A869C971C869E6
:103D5C00A769A869A869C871C871EC92F0AB8E9B71
:103D6C004D936C9B0FB4ADA3ADA38D936D8BC751CD
:103D7C00C7514962AA72CA7AAA7A4C938D93AA7ACD
:103D8C00697AE661AA9B4BAC0A9C6CA4D3CD35D660
:103D9C0035CE35CE16CEF6CD16CEF5CD13B5F2AC5E
:103DAC0033B512AD12B5F2B412B5CE93E7618659A4
:103DBC006659A7698A828EA30C938A82EB8A2C8B14
:103DCC00AB7A8759665966594651A759286A4D935B
:103DDC00EA820A8B8C9B2B932B9B6CA3CB92E8795E
:103DEC0067698769A86987618761C869497A8A8226
:103DFC00AA82497AE769A761C761C769E871C77187
:103E0C00C871C771697AEB8A4C93EEA3AD9BEEA394
:103E1C008C9B897AEA8AEB9269828982A98A487A90
:103E2C006982487AE7698659A761A7596759675922
:103E3C00675967610972E9716769A871C871C871BE
:103E4C00C871A8718871A971C971E971A761C8613C
:103E5C00C761A761A761C769A7718B8ACB82EB8207
:103E6C000B8B2C932FB450BCADA38D9BEB7A654977
:103E7C004541085A8A72CB82697ACB820C8B697A5B
:103E8C00897A26720BA44AAC2AA4CEB4F4D535D6C2
:103E9C0015CE35CE16CEF5CD16CE16D633B5D2AC54
:103EAC0033B5F2AC12AD12B513B5D2B44862244995
:103EBC006559A66189824C9BCA8AAA8A4C93AE9B8F
:103ECC00AA7A8659875987594651A75969720B8B1B
:103EDC00EA824B93CDA38CA36BA34B9B0C9349828F
:103EEC0087698761A769A76908728B826D9B6D9B37
:103EFC006D9B2C93EB8A8A822872C769C769A86963
:103F0C00C869A769A769A66928722B93CDA3EA8A09
:103F1C002B8B4C930B930B930B932B9B6982C76945
:103F2C00C7698661A7618759A859A8596751A859CB
:103F3C00A85967590972297AC7718A8A297AC8716E
:103F4C00A771C879A871A87188690972086A8A7AF8
:103F5C00AB7A8A7A497A497AC7718769C761C75936
:103F6C000762E7612872ADA3ADA3CEA32C8BA65933
:103F7C0045498651C759086AC761086A8A822872FE
:103F8C00677AC7824BAC4AAC2AA40FB515D616CEAD
:103F9C0016CE15CE15CE15CE16CE16D633B5F2AC32
:103FAC0033B512AD12AD33B533B534BDAE93A651A6
:103FBC006551A6618982EB92EA920B93EB8AEB82B4
:103FCC00C761455187616759665986598A7AEB8270
:103FDC006C93CDA36B9B4A9B8BA32A930B93CB8A9D
:103FEC002972A7618661665908724D934D9B0C939B
:103FFC00CA8AAA82EB8A0B93CB8A497AC8698761F1
:10400C00A861A761455966610872EB8AEB8A2B930C
:10401C00ADA3CEA30A932B930B93EB92497AC86969
:10402C0067618759A861A85988598851A8594A6A63
:10403C006A7229728A7ACA8A0B938DA3EB92E87101
:10404C00A7698769A8696761876129724D936D9328
:10405C004D930B8B0C8BEB8A8A8AC869A7616651CE
:10406C00C759C659A5592B8B8D9BCEA30C8B865942
:10407C0066598759A761C861865987614A7A48721F
:10408C00677249936BB42AA44BA451C516D6F6CDCE
:10409C0016CE35CE15CE15CE15CEF5CD13B513B532
:1040AC0033B513B512AD33B513B533B534BD696A39
:1040BC0085518559697ACA8A2B9B2B9BEA8AA97AE6
:1040CC00A661A661A76146598761A7618A82EB8ABE
:1040DC000B8B4B938CA3ACA3CCAB8CA34C93CB8210
:1040EC00C7616659C869C761C761697AEB8A0B9366
:1040FC002C932C9B4C9B4C9BEB928A82C8616759EE
:10410C00875966592559497AEB8ACA8A0B932B939E
:10411C004B930A8B8DA32B930A93CA8ACC8A8B82DE
:10412C00676188596751675188518751A751AB72A4
:10413C00EC820C8B4C936C9B6C9B0B93CB92E7712E
:10414C00C8716661A869876129720D8B4D932C8BA0
:10415C00EB8A2B8B8D9B0B93CB8AE871C861A7598B
:10416C00A759A659C659EA824C938D9BAEA3E86910
:10417C00876167618761876167596759E869487A20
:10418C00667AC99B6AAC2AA48DACD3CD16D6F6CD73
:10419C0036CE35CE14CE35CE15CEF5CD13B513B5F2
:1041AC0013B513B533B533B513B513B533BD91ACE6
:1041BC004441E66127728882C98A0A930A93697A14
:1041CC00A661866186616761C869A7692872CA8A17
:1041DC00EA8A0A8B6B9B8BA36A9B8CA34C9B697A98
:1041EC00A761A6616661A769C769497ACA8AEB9219
:1041FC00CA8A0B932B936DA32C9BCB82E8614651FF
:10420C00665166596659C7614972EA8AEB8A8C9B7A
:10421C008C9B4B932B934B934B93AA828661A869EF
:10422C00876167596751885188516749C851CB7A62
:10423C000C83EB826C936C9B2A932B934C9BEB9291
:10424C0008728659A761A761E861AB82EB8A6D9B06
:10425C000B936C9B6C9B6D9B2C938A7AE8618751BA
:10426C008751A759A659286AEB820C8B8EA308722A
:10427C00465987618761876188618761A869487A37
:10428C00E7824BAC4AAC2AA40FBDF4D5F6D516CEBA
:10429C0016CE15CE35CE15CEF5CDF5CD13B513B551
:1042AC0013B533B533B533B533B533B534BD33BDD1
:1042BC006C8B4449C6618982A982A882A982277223
:1042CC008561A769A769676187618761A661497A7A
:1042DC0089820B932B93ACA34B9B6CA3CA8AE8717A
:1042EC00666187618761A7698761C769AA82EB925A
:1042FC000B93EA8A0B8B0B930B8B4D938B72C859D8
:10430C008751665166592872897AA9820A8B2B8B40
:10431C00EA8AC982E9820A8BE98A487A8661455918
:10432C00255125516651665186498649A751AA7275
:10433C000B83CA7A0A8B4B934B936C9B0B930B930B
:10434C00697AA761A7598759A7614972EB8A2B93A0
:10435C000B930B934C9B6D9B6D9B4D93AB7A4A6A65
:10436C00C859A759A7598659E7616A7A4D9B6A7A49
:10437C008761A8616759886188616759C769477205
:10438C0068936AAC4AA44BA472C515D6F6CD16CE6A
:10439C0016CE15CE14CE14CEF5CDF5CD13B513B572
:1043AC0013B533B533B553B553B554B554BD54BD2E
:1043BC00F3BCEA7AC659C6610672EA8AEA8A687A56
:1043CC0085616561666146618761A769A661A661C1
:1043DC0028720B93CA8AADABEEB34CA36A8AA77151
:1043EC00A771A871C871A771A769A769087228720B
:1043FC00AA826872897AA97AAA7A8A728A72AB724C
:10440C00296A86516651A659076AEA824B93CD9B5D
:10441C00EDA30EAC2EAC4FB46FB42EACEEABADA383
:10442C002C93A97AE761654944414449E7592862CC
:10443C00896A2B8BAD9B8C9B2B932B932B9B2B9358
:10444C00497286598759A759A761C769AA8AEB92FD
:10445C004C9BEA92EB92EA8A0B8B4D934D8B6F8BB4
:10446C008B7266516759A76166598659E869E8618C
:10447C0046518759465187618869676186614772E1
:10448C00EAA36AAC2AA4ADACF4D515D6F6CD16CEFB
:10449C0016CE15CE14CE14CEF5CDF5CD33B533B531
:1044AC0013B533B533B533B553BD33B553BD33BD88
:1044BC0074C570AC68728559066ACA8A0B8BCA8A35
:1044CC002872866166618761876166618661866133
:1044DC00A661C6696982CB920B9BAA92E88167712F
:1044EC00A879877187718771A771A769C769856179
:1044FC0085598559E661276A8972AA722C83CB7A11
:10450C00696AC6594451C661EA82EDA3B0BC52CD6A
:10451C0093D5D4DDB3DD93D5B3DD93DD73DD93DDBE
:10452C0093DD73D532CD90B48C8B8872A551686AAB
:10453C000A830B830B8B6C938D9B8C9BADA34C9B39
:10454C00497286598759C861A7618761E871487AB1
:10455C00898A8982A982897AAA82EC822D830D8329
:10456C002A6AA859C869A8616759C7618659E86160
:10457C008651A75987596659676167616561A7823A
:10458C004BAC4AA42A9C30BD15D6F5CD16CE16CE12
:10459C0015CE15CE14CE14CEF5CDF5CD33B533B531
:1045AC0013B533B533B533BD33BD33B554BD13B5C6
:1045BC0094C554BDEE9BC559076ACA82A982697A13
:1045CC00E76965594559666166594559A661455172
:1045DC00655945596661A769087A8771877146697B
:1045EC00A879676967718771A77186698669A669F9
:1045FC006559C661A659244165490862696A2B83CD
:10460C00686A06624B8BB1BC53D5D4DD93D5B3D558
:10461C0072D572D572D551CD51D531CD51D551D52B
:10462C0051D551CD93D5D4DDB3D552C5B0B48C93FF
:10463C00C97AA97AEA822B8B2B932B932B93AA8280
:10464C00086A8761876188618861A8698769E771F1
:10465C008561A661A5618659A7598651E859A7516C
:10466C0066516759A8618761675987594549E75968
:10467C00C75965498651665987698661C5696993C9
:10468C006AAC29A46CA4D3CD36D616CE15CE15CED5
:10469C0015CE15CE15CE14CEF5CDF6CD13B512B56F
:1046AC0012B512B532B532BD33BD33BD53BD33B5C2
:1046BC0054BD95C553C58D8B076AA97A887AA561B7
:1046CC0044596559665986618659A75925518659A9
:1046DC0045514559866186692661A8718771677154
:1046EC00877167698771A7716769666986690872DE
:1046FC00CB822C8B076286518651454144412762FF
:10470C008C9312C5B4DD93D573D572D5B3D592D530
:10471C0051CD71CD71D571D592DD71D551D551D5A4
:10472C0072D572D551CD31CD72CD93D5B4DD73D553
:10473C00B0B48B93C97AC9822A8B2B8B0B8B687A7A
:10474C00A6616761886988696869A871A7696982C7
:10475C0007724872C6618659C861C8598759875112
:10476C00875987598759A861A7596651496AEB7AC5
:10477C00CA7285518659A661E869A66188820BAC1C
:10478C004AA429A4EEB414D616D616CE15CE15CE40
:10479C0015CE15CE14CEF5CDF5CDF6CDF2ACF2ACE2
:1047AC00F2B412B512B532B532BD32B532B574BDF4
:1047BC0013B512B574C5B5D5CE9BCA82687A645947
:1047CC00855928728A7AAA7A4972086A865945519B
:1047DC00455166598761676167698871876987691F
:1047EC0067696769876967696669E879EC920C9310
:1047FC00CFA3EB8A66516651665166512B8312C565
:10480C00B4D552CD52CD52CD92D592D571CD92D543
:10481C0071D591D571D551D571DD71D572D571D553
:10482C0071D572D571D551CD31CD30C572CD72D512
:10483C0072D531CD2EAC4A932A8B8C9B8C9B897A6A
:10484C00A7698769887168696869A8714A824D9BF4
:10485C008D9B2B8B486A865187518759A76166516E
:10486C006651A75987514649865108626A6ACB7AC4
:10487C00CA7A855186594872697248724A932BAC30
:10488C0029A48BAC91C515D616CE15CE15CE15CE4A
:10489C00F5CDF5CDF4CDF5CDF5CDF6CDF2ACF2AC44
:1048AC00F2ACF2B412B512B512B512B532B5F2AC17
:1048BC0053BD12B533BD33BD74CDB1B4CA82855965
:1048CC0085594872CA822C930C8B89726972A659CD
:1048DC0086594551C86966618769676987698761C7
:1048EC006661876987696761A7690C9B2D9B4D9BE6
:1048FC006D9BE769C761A659C76150AC94D5B4DD0F
:10490C0072D572D572D572D592DD92D592D5B2DDB3
:10491C0091D571D571D551D571D551D531CD72D5C2
:10492C0072D551D551CD71D592D592D592D551CD57
:10493C0031CD72D572D56EB46A93E982887AC76923
:10494C0066616769686948696871E979CC8A6D9BA9
:10495C00EFA32B8B8A7AE761875967596661A76148
:10496C00876166518651C7596A6A0C83CB7ACB7AB8
:10497C00EA82E661E661A97AA97AC97AECA34BAC22
:10498C002AA40DB534DE15CE16CEF5C515CE15CE32
:10499C0015CEF5CDF5CDF5CDF5CDF5CDD1ACF2AC43
:1049AC00F1ACF1ACF1ACF1ACF1ACF2B4F2B412B5D7
:1049BC0012B512B512B532BD53BD54C550ACE6613B
:1049CC006451897AEA82CA820B83EA82897289727B
:1049DC00E761A65986618661876966616661665979
:1049EC0066598761C7698661C6696D9B4C9BCEAB66
:1049FC00CA8AA66185596872F1C4D4DD73D593DD7A
:104A0C0072D552D552D551D571D592DD72D572D59C
:104A1C0071D551D551CD31CD31CD31CD10CD51CD0B
:104A2C0071D571D571D571D571D571D572D551CD71
:104A3C0051CD31CD31CD72D5D0BC0A8B6559A76122
:104A4C004661886968696769C871AB8A6D9B6C9BA4
:104A5C000A8B6B932B8B8D9B08728661A7696661A1
:104A6C0086618659655108622C838D936C93CA823A
:104A7C00EA8A6872687AA87A6772CC9B2CA40B9C21
:104A8C00AEACF3CD35D615CE15CE16CEF5CD15CEA6
:104A9C00F5C5F5C5F5CDF5CDF5CD15CED1ACF1AC53
:104AAC00F1ACF1ACF1ACF1ACF2B4F2B4F2B412B5CD
:104ABC0012B532B532B532B533BD33BD13C5EA7A52
:104ACC008551A559276A897ACA82EA82A97A0B8309
:104ADC008972E761865945596661A769C7698A82F7
:104AEC00AB82697A8A82CB82EA8A4B936C9BEA8A84
:104AFC00687A6459687A8FBCD3DD71D571D571D55C
:104B0C0071D551D571D551D531D551D571D571D509
:104B1C0051D551CD31CD11CD10C511CD10C510CD04
:104B2C0031CD51D551D572D571D571D551CD31CD40
:104B3C0051D572D531CD72CD92D511C5697A465900
:104B4C006761666187698769E871AA82CA82CD9BB1
:104B5C008C936B936C936D9B697A087287698669E9
:104B6C00666145516651086AAA7ACB828A7A697A5B
:104B7C00687A8882467266726A8B4CA42C9CAEA4AE
:104B8C0071C514D635D615CE15CE16CEF5C5F5C5D0
:104B9C00F5C5F5C5F5CDF5CDF5CDF4CDD1ACF1AC74
:104BAC00F1ACF1ACF1ACF2B4F2B4F2B412B512B5A2
:104BBC0012B512B532B532B532B512B554C513BDF6
:104BCC002FA44C8BCA7A88728972EA7AEA7ACA7AEA
:104BDC00AA7A8972A661455966610559297A0B939F
:104BEC004C9B4C934C934B8B2B8B0A8BA97A0A8B3B
:104BFC00266A6772D0C472DD0FCD50D550D551D511
:104C0C0051D551D551D551D530CD30CD31CD51CDEA
:104C1C0051CD30CD10C510C510C531C510C510C54E
:104C2C0010CD30CD51D571D571D550CD30CD10C5FD
:104C3C0030CD51CD51CD51CD92D5B3DD33D5C769E2
:104C4C004559C769666166618A82EB8A2B8B6C93C6
:104C5C006B8B6B8BEA820B83EB8AC7698669A769BE
:104C6C00666146598659A7618761A761A769E77193
:104C7C0084612672A67A27838CAC4B9C8DA471C55B
:104C8C0014D634D614CE15CE15CE15CEF5C5F5C525
:104C9C00F5CD15CEF5CDF5CDF4CDD4C5D1ACD1AC8B
:104CAC00F1ACF1ACF1ACF2B4F2B4F2B412B5F2B4C2
:104CBC00F2B412B512B532B532B532BDF2B433BD61
:104CCC0053C553C574CDF2BC0E9C4B8B8972C97AFB
:104CDC0089726972E7692551055966616561A66932
:104CEC000772A982EA82EA82EA82A97A486A887201
:104CFC00C8822DAC10CDCEBCCEC42FCD30CD50CD76
:104D0C0030CD0FCD30CD0FCD0FC510C510C530CD6A
:104D1C0031CD10C510C510C531C531CD10C510C56C
:104D2C0010C510CD30CD30CD10CD0FC530CD30CD20
:104D3C0030CD30CD71D591D571D551CD73DD2FB42A
:104D4C00C66944598661A7612972AA7A0B834B8B79
:104D5C000A7B0A7BEA7AAA7A286AA661666166618E
:104D6C006661666167614759476187696661A669D3
:104D7C006361056A69934BA46BA48BA471BD14D6B3
:104D8C0035D614CE15CE35CE15CEF5CDF5C515CE02
:104D9C0015CE15CE15CEF5CDF4CDD4C5D1ACD1AC48
:104DAC00D1ACF1ACF1ACF1ACF2B4F2B4F2B4F2B40B
:104DBC0012B512B512B532B533BD33BD33B512B51C
:104DCC0012B512BD33BD53C574CD74CD4FA4A972A9
:104DDC000762897A086A4559455925592561456103
:104DEC004459E6696872C97AEA7A4862C551266202
:104DFC004DAC0FC56CB4CDC4CEC4CDC40ECD2FCD2F
:104E0C000FCD0EC5EEC4EEC4EFC4EFC40FC530C554
:104E1C0030CD10C5F0C410C531C551CD10C510C56D
:104E2C00EFC4EFC4EFC4CFBCCEBCCEBCAEBC0FCD78
:104E3C002FCD0FC530CD50CD50CD50CD31CD31CD46
:104E4C00E98A8459A6616559E7690C8B0B830B833E
:104E5C00CA7A8872476289726972AA7AAB82E871DF
:104E6C00876987616761A869A871666987716561DF
:104E7C00C571E88A0BA42A9C6A9C8FBD14D635D6C2
:104E8C0015D6F4CD15CE15CEF5CD15CE15CE15CE39
:104E9C0015CE15CE15CEF5CDF5CDD4C5D1ACD1AC46
:104EAC00D1ACF1ACF1ACF1ACF2B4F2B4F1ACF2B413
:104EBC0012B532B532B532B532B532B573BD32B585
:104ECC0033B553BD12B532BD53C553C5B5CD33C57E
:104EDC008D8B07628551665966590551456145614F
:104EEC00655964598459C559E659A551A5510D9C6C
:104EFC0030CD0FC5EDC4EDCCACBCCDC4EEC40EC5ED
:104F0C000ECD0EC50EC5EEBCCEBCEEBC0FC510C58D
:104F1C0030C5F0C4F0BCF0C410C531C510C5F0C428
:104F2C00F0C4EFBCAEBC8EB48DBCAEBC8DB4ADBC0D
:104F3C00CEBCEEC40FC5EEC4EEC4EEC4CEC4EFC4FA
:104F4C006EBCA46164594872EB8A0B8B6C930B8317
:104F5C00C9722762A551CA7A4C8B8D9B2C930C93EA
:104F6C000C936A82466125598769666986698569E9
:104F7C006882CCA34CA44C9C2EB532CE35D615CE23
:104F8C0015CE15CE35CE15CEF5C535CE15CE15CEE6
:104F9C0015CE15CE15CEF5CDF5CDD5CDD1ACD1AC3C
:104FAC00D1ACF1ACF1ACF1ACF2B412B5F2B4F2B4E8
:104FBC0012B512B532B532B532B532B512AD32B515
:104FCC0053BD53BD53BD53BD74C594CD73C594C56A
:104FDC0095CD13BD4C8B8551455186594661466123
:104FEC008661855964518551E65988728C9352CDEE
:104FFC0030CD4FCDEEC48CBCEECCEEC4CDC40EC5C2
:10500C000EC50EC50EC5EEBCAEBCAEBCEFBC10C51D
:10501C0010C5D0BCAFBCD0BCF0BCF0BCF0BCF0BC7C
:10502C00F0BCEFBCAEBC8DB46DB48DB4AEBC8DBC5D
:10503C00ADBCCEC4EEC4CDC4ADBC8CBC6CB46CB435
:10504C008EBC877AA982CA82897AEB820B834C8BBD
:10505C00A972276AEA7A4C8BEA82EB8AEB928982F4
:10506C00487A487A2872287A487A477AA9822A9309
:10507C00CDA3B0B4F0BC51BDF3CD35CE35D615CEE5
:10508C0015CE36CE15CE15CE15CE35CE15CE15CEBB
:10509C0015CE15CE15CE15CEF5CDD5C5D1ACD1AC22
:1050AC00F1ACF1ACF1ACF2B4F2B412B512B5F2B49D
:1050BC00F1ACF2B412B532B533BD32B533B553BD24
:1050CC0033B532B553BD74C573BD53BD94C594C5CA
:1050DC0033BD74C595CD71ACAA72655166614659E4
:1050EC006659455185590762476AE982AFBC31CD93
:1050FC000FCD2FCDEECCEEC4ADC48CBCCDBCEDC46D
:10510C00EDC4EEC4EEC4CEBC8DB48DB4CFBCF0BC3B
:10511C00F0BCAFBCAFB4AFBCB0BCB0B4D0BCCFBCB7
:10512C00CFBCCFBCAEB46DB44DB44CB46DB48DBC6F
:10513C008DBC8CB46CB48CBC8DBC8CBCCDBC8CB418
:10514C008EBC6A9BC982CA82EB8ACA82EB82CA82F3
:10515C00897A897A2B8BEA82CA82276AE669856109
:10516C00A5612772887A677A2A8B4FB4D0BC52CD4E
:10517C00B4D5B4D516DE36DED4C536D616CE16CE9C
:10518C0016CE16CEF5C515CE35CE15CE15C615C612
:10519C00F5C515CE15CE15CEF5CDD5C5B1ACD1AC6A
:1051AC00D1ACD1ACF1ACF2B412B512B512B512B59A
:1051BC0012B512B532B533BD33BD33BD33B553BDA6
:1051CC0053BD53BD53BD53BD53BD53BD94C553BD0A
:1051DC0073BD74BD74BDB5CD33BDEF9BA75945519F
:1051EC0067594551455185594772CBA330D5EECC03
:1051FC00EECCEECCCDC4ADC46CB46CB48CBCADBC3C
:10520C00CDBCCDBCCEBC8DB48DB4AEB4F0BCF0BCBA
:10521C00D0BCAFB4AFB4B0B4D0BCB0B4AFB4CFB4F6
:10522C00D0BCAFBC8EB44DAC2DAC4DAC4DB46DB44C
:10523C006DBC6CB44CB44BB46CBC8CBCACBCCDBCB9
:10524C00AEBCCCA3EA8ACA82CA82AA82087228722D
:10525C004C9B2B93C98AC56164598561A561C56155
:10526C00E561466A09834A8BB0B435DE35DE15DE5E
:10527C0015D616D616D616D616CE16CE16CE16CEE3
:10528C0016CE15CE15CE15CE15CE15CE15CE15CEF9
:10529C0015CE15CEF5CDF5CDD5C5D5C5D1ACD1AC8A
:1052AC00F1ACF2B4F2B412B512B512B512B512B526
:1052BC0012B512B532B532B532B532B553BD53BD98
:1052CC0053BD53BD53BD53BD53BD53BD53BD53BD52
:1052DC0094BD74BD53B574BD95C554BDB2BCAA7A0A
:1052EC006651665965514351877A8DBCCDC4CDC486
:1052FC00CDCCADC4ADC4CDC48BBC2AAC6CB48CBC11
:10530C008DBCADBCADBC8DB48EB4CFBCF0BCF0BC10
:10531C00D0BCB0B4B0B4B0B4B0B4B0B4AFB4D0B41A
:10532C00D0BCAFB48FB44EAC2DAC2DAC2CAC2CACE3
:10533C002CB42CAC0BAC0BAC2BB44BB48DBC6CB4F4
:10534C008EBC0DAC887A687A8982C7694459898287
:10535C002B9B8882C56984618461E669266A6772C1
:10536C000983CC9BF0B4D0B431BD14D635D635D628
:10537C0035D636CE36CE16CE16CE16CE16CE16CE9A
:10538C0016CE15CE15CE15CE15CE15CE15CE15CEF8
:10539C0015CE15CEF5CDF5CDF5CDF5C5D1ACF2AC20
:1053AC0012B512B512B532B512B512B533B533B557
:1053BC0033B533B533B533B533B533B533BD53BD71
:1053CC0053BD53BD33BD33BD53BD53BD53B553B5A1
:1053DC0074BD94BD74BD74BD94BDB5C594CD33C5B9
:1053EC00AE936972A659224965726CBC8BBCABC476
:1053FC00CCCCACC46BBC6BBC4AB44AB44BB46CB430
:10540C006CB46DB48DB48DB4AEB4CFBC10BDF0BC67
:10541C00D0BCB0B4B0B4B0B4B0BCB0B4AFB4AFB432
:10542C00AFB4AFB48FB44EAC2DAC0CAC0CAC0CAC6C
:10543C00EBABEBABEBAB0BAC0BAC0BAC6CBC6CB431
:10544C008EBC4EB427728559C6694559C6690B93F3
:10545C00688284616359067206726772E982CD9B19
:10546C0090B412BD93C5F1B412B556D656CE36CE05
:10547C0036CE36CE35CE35CE15CE15CE16CE15CE85
:10548C0015CE15CE15CE15CE15CE15CE15CE15CEF8
:10549C00F5CDF5CDF5CDF5CDF5CDF5CDF2AC12B50F
:1054AC0013B532B513B533B533B512B533B533B512
:1054BC0033B533B533B533B533B533B533BD33BD90
:1054CC0033BD33BD33BD53BD53BD53BD53BD53B5B8
:1054DC0053B573B594BD74BD53B553BD74C594CD5C
:1054EC0074CDB2B42B83E561C67A4BAC4AB44AB4E2
:1054FC006BBC6BBC6BBC6BBC09AC09AC2AAC4BB4C5
:10550C004CB44CB46DB46DB4AEB4F0BCF0BCF0BCE7
:10551C00D0BCAFB4AFB4AFB4AFB4AFB48FB48FB47E
:10552C008FB48FB48FB46EB40DACECA3ECABECAB0E
:10553C00EBABEBABEBABEAABEBABEAAB2BB48DBCB5
:10554C004DB44EB447722351445185612872287A68
:10555C004359E569477AA87AC982AC9BB0B432BD8D
:10556C0053C553BD94C512B512AD36CE36CE36CE1C
:10557C0036CE35CE35CE35CE15CE15CE15CE15CE86
:10558C0015CE15CE15CE15CE15CE15CE15CE15CEF7
:10559C00F5CDF5CDF5CDF5CDF5CDF5CDF2AC12B50E
:1055AC0013B513B513B533B533B513B533B533B52F
:1055BC0033B533B533B533BD33BD33BD33B533BD7F
:1055CC0033BD33BD33BD33BD53BD53BD53BD74BDAE
:1055DC0053B553B573BD53BD53BD74C553BD73BDE6
:1055EC0094C594CD74C5ED9B2562A67AC99B09AC74
:1055FC002AB42AB44ABC4ABCE9ABE9A30AAC2BB422
:10560C004CB44CB46DB46DB48EB4CFBCCFBCCFBC69
:10561C00AFB4AFB4AFB4AFB4AFBCCFB4AFB48EB45F
:10562C008EB48EB48FB46EB40DACEBA3CBA3CBA362
:10563C00CBA3CBA3AAA3AAA3AAA3EBAB0BB42CB466
:10564C00ECAB4EB4887A445144518559A66107722B
:10565C002772887AC97A2A8B4FAC53C574C594C506
:10566C0053BD33BD94C553B5F2ACF6CD36CE36CE64
:10567C0036CE35CE35CE35CE14CE14CE15CE15CE87
:10568C00F5CDF5CDF5CD15CE15CE15CE15CEF5CD7A
:10569C00F5CDF5CDF5CDF5CDF5C5F5C513B513B5F2
:1056AC0013B513B513B513B533B533B533B533B52E
:1056BC0033B533B533B533BD54BD33BD33BD53BD35
:1056CC0033BD33BD33BD33BD33BD53BD33BD74BDED
:1056DC0053BD33B553BD53BD53BD73C594C533BD15
:1056EC0074BD33BD74C5B5CDD1B46EAC4DACEAA3AD
:1056FC00A9A3C9AB0AB4E9AB88A3E9ABEAAB2BAC61
:10570C002BB42CAC4CB46DB48EB4CFBCAFB4AFB422
:10571C00AFB4AFB4AFB4AFB4AFB4CFBCAFB48EB45E
:10572C008EB48EB48FB48EB42DACECA3ABA3CBA340
:10573C00CBA3AAA3899B699B89A3EAAB0BB4AAA3AD
:10574C00CBAB2DAC477223496451855947724872D3
:10575C00887AEA82ED9B12BDD5CD32B533B594BDB6
:10576C0074BD53BD53BD12B5D1ACF5CD16CE15CE0F
:10577C0015CE15CE15CE15CE15CE15CE15CE15CE05
:10578C00F5CDF5CDF5CDF5CD15CE15CEF5CDF5CDBB
:10579C00F5CDF5CDF5CDF5CDF5C514C613B513B5D1
:1057AC0013B513B513B513B513B513B533B533B56D
:1057BC0033B533B533B533BD54BD33BD53B553B524
:1057CC0053BD33BD33BD33BD33BD33BD53BD53BDED
:1057DC0053BD53BD53BD53BD33BD32BD53BD94C535
:1057EC0094BD54B574BD95C554BDB5CD93CD8EB493
:1057FC00A99B689BE9ABE9AB48A368A3CAAB0AAC0D
:10580C002BAC2BAC6DB46DB48EB4AEB48EB48EB474
:10581C008EB48EB48EB48EB48EB4AEB4AEB48EB42C
:10582C006EB48EB4AFB48EB44DAC0CA4ABA3ABA31E
:10583C00ABA3AAA3699B4893899BCAA3A9A389A3D9
:10584C00AAA36A9305628451076AA97AC97AA97ACC
:10585C00AD9BD1B473C574C574BD94BD95BD95BDD8
:10586C0074BD74BD53BD52BDF1ACD4CD15D615D697
:10587C0015CE15CE16CE16CEF6CDF6CDF5CD15CE63
:10588C00F5CDF5CDF5CDF5CDF5CDF5CDF5CDF5CDFC
:10589C00F5CDF5CD15CEF5C514C614C613B513B597
:1058AC0013B513B513B513B513B513B533B533B56C
:1058BC0033B533B533B533BD33BD33BD33B533B584
:1058CC0033B533BD33BD33BD33BD53BD53BD33BD14
:1058DC0033BD53BD33BD33BD33BD74C554BD74BD71
:1058EC0074BD94BD74BD74BD75C554BD33BD93CD2D
:1058FC00F0BCA99B689BC9AB69A3489BA9A3EAAB65
:10590C000BAC2BAC6CB48DB48EB48EB48EB46DACBD
:10591C006DAC6EB46EB46DB46DB48EB48EB46DAC3F
:10592C006DAC6EB48EB48EB44DAC0CACCBA3ABA33F
:10593C00AAA38A9B499B2893689BA9A3489B89A3EC
:10594C0028936672266A67724B8B70AC90B490ACDD
:10595C0033BD74C5B4C5B5C574BD74B595BD95BD21
:10596C0074BD74BD33BD32BDD0ACB3CD15D614D619
:10597C0015CE15CE16CE16CEF6CDF6CD15CE15CE41
:10598C0015CEF5CDF5CDF5CDF5CDF5CDF5CDF5CDDA
:10599C00F5CDF5CD15CE15CE14C614C613B513B56D
:1059AC0013B513B533B533B533B533B533B533B5EB
:1059BC0013B512B513B533BD33BD33BD33B533B5E4
:1059CC0033BD33BD53BD33BD33BD33BD33BD33BD2B
:1059DC0053BD54BD54BD53BD53BD54BD74BD74BDF6
:1059EC0074BD74BD74C574C554BD53BD33B5B4C555
:1059FC0073C552C5ECA34893689B489B89A30AAC1A
:105A0C000BAC2CAC6DB46DB46DB48EB46EB44DAC3B
:105A1C002DAC4DAC2DAC2DAC4DAC4DAC4DAC4DAC12
:105A2C004DAC4DAC6EB48EB46DAC0CA4CBA38A9BB8
:105A3C008A9B699B28932893689B479B47A3C69294
:105A4C00A682A77AC87ACD9312B595C5B5C595C56A
:105A5C0094C594C594C595C594BD74BD94BD95BDB0
:105A6C0074BD53BD53BD32B5D0ACB4CD15CE15CE2F
:105A7C0015CE15CE15CE15CE15CE15CE15CE15CE02
:105A8C00F5CDF5CDF5CDF5CDF5CDF5CDF5CDF5CDFA
:105A9C00F5CDF5CDF5CDF5CDF5CDF5CD13B513B5DE
:105AAC0013B513B513B513B533B533B513B513B56A
:105ABC0012B512B512B533B533B533B533B533B5FD
:105ACC0033BD33BD33BD33BD33BD33BD33BD33BD4A
