:020000040800F2
:100000000050002021020008270200082B020008EF
:1000100043020008470200085F02000800000000D9
:10002000000000000000000000000000770200084F
:100030007B020008000000007F020008550700084E
:100040009102000891020008910200089102000844
:100050009102000891020008910200089102000834
:100060009102000891020008910200089102000824
:100070009102000891020008910200089102000814
:100080009102000891020008910200089102000804
:1000900091020008910200089102000891020008F4
:1000A00091020008910200089102000891020008E4
:1000B00091020008910200089102000891020008D4
:1000C00091020008910200089102000891020008C4
:1000D00091020008910200089102000891020008B4
:1000E000910200089102000891020008000000003F
:1000F0000000000000000000000000000000000000
:1001000000000000000000005FF808F100B583B0B7
:1001100000F0DEF8304B314A1360314A1360314B46
:10012000314A32498B4204D21168196004330432D7
:10013000F7E72A4B1A682E4B9A4200D0FEE7284B6D
:100140001A682C4B9A42F9D1234B2B4A13602B4A45
:1001500013602B4B02E000221A600433294A9342B9
:10016000F9D3254B1B6813B9244B1B6803B1FEE779
:1001700000F0BAF8694601A800F0A2F8224C234B1F
:10018000E41AA4100025AC4214DC214C214BE41AE3
:10019000A4100025AC4213DC0099019800F01EFB6E
:1001A00005461D4C1D4BE41AA410002C0EDC2846FD
:1001B00000F084F8154B53F8253098470135E2E7F5
:1001C000144B53F8253098470135E3E7013C134BB6
:1001D00053F824309847E8E7BABADECA0000002096
:1001E000200000200000002050080008240000200B
:1001F000785634123254769824000020580000209B
:10020000240000205C000020BC020008BC020008A2
:10021000BC020008BC020008BC020008BC020008C6
:1002200008B5FFF773FF00BEFEE71EF0040F0CBF1A
:10023000EFF30880EFF309807146124A104700BEC1
:10024000FEE700BEFEE71EF0040F0CBFEFF30880D0
:10025000EFF3098071460C4A104700BEFEE71EF01E
:10026000040F0CBFEFF30880EFF309807146074AD3
:10027000104700BEFEE700BEFEE700BEFEE700BE80
:10028000FEE770473F0200085B02000873020008A7
:0402900000BEFEE7C7
:100294005008000800000020240000205008000836
:1002A4000000000000000000240000205C0000208A
:0802B400000000000000000042
:1002BC00FEE7000001230360014B0B60704700BF99
:1002CC000400002008B500F073F8024A024B9A6053
:1002DC0008BD00BF0000000800ED00E008B500F00C
:1002EC008FF808BD82B00023019300932C4A136849
:1002FC0043F4803313602A4B1B6803F400330093E0
:10030C00019B01330193009B1BB9019BB3F5A06FBB
:10031C00F1D1234B1B6813F4003F06D0012300934B
:10032C00009B012B04D002B0704700230093F7E729
:10033C001C4B1A6842F010021A601A6822F0030271
:10034C001A601A6842F002021A60A3F580535A68C8
:10035C005A605A685A605A6842F480625A605A6805
:10036C0022F47C125A605A6842F4E8125A601A68F5
:10037C0042F080721A600A4B1B6813F0007FFAD0AF
:10038C00074B5A6822F003025A605A6842F0020284
:10039C005A60034B5B6803F00C03082BF9D1C2E7DE
:1003AC00001002400020024008B5FFF79BFF08BD7B
:1003BC0008B5104B1A6842F001021A6059680E4ACF
:1003CC000A405A601A6822F0847222F480321A6051
:1003DC001A6822F480221A605A6822F4FE025A60CB
:1003EC004FF41F029A60FFF7DFFF044B4FF00062DF
:1003FC009A6008BD001002400000FFF800ED00E01C
:10040C001F4B5B6803F00C03042B15D0082B17D083
:10041C001BB11C4B1C4A1A6002E01A4B1A4A1A6098
:10042C00174B5B68C3F30313184AD35CDAB2154954
:10043C000B68D3400B607047124B134A1A60EFE7FE
:10044C000F4A53685268C3F38343023312F4803F5C
:10045C000AD00B4A526812F4003F0BD00C4A02FB34
:10046C0003F3084A1360DBE7094A02FB03F3054A6E
:10047C001360D5E7044A02FB03F3024A1360CFE78B
:10048C00001002401C00002000127A000C0000201A
:10049C0000093D0010B4012827D018B1022847D01C
:1004AC0010BC7047072912D90F29F9D8A1F10804FB
:1004BC00E4B2314B1968A4000F20A04021EA0001DE
:1004CC001960186802FA04F101431960E8E72B4B34
:1004DC00186889000F248C4020EA04001860186802
:1004EC0002FA01F101431960DAE7072912D90F2941
:1004FC00D6D8A1F10800C0B2214B196880000F2496
:10050C00844021EA040119601C6802FA00F12143BD
:10051C001960C5E71B4B186889000F248C4020EA32
:10052C0004001860186802FA01F101431960B7E77A
:10053C00072912D90F29B3D8A1F10803DBB212484D
:10054C0001689B000F249C4021EA040101600468AF
:10055C0002FA03F121430160A2E70C4B18688900F1
:10056C000F248C4020EA04001860186802FA01F18C
:10057C000143196094E700BF0408014000080140E2
:10058C00040C0140000C014004100140001001401B
:10059C00012816D010B1022826D0704742B1012A8A
:1005AC0034D11B48036802FA01F11943016070470A
:1005BC0017480368012202FA01F123EA01010160E4
:1005CC00704742B1012A21D11248036802FA01F1A5
:1005DC001943016070470F480368012202FA01F1C8
:1005EC0023EA01010160704742B1012A0ED10A4889
:1005FC00036802FA01F11943016070470648036869
:10060C00012202FA01F123EA01010160704700BFE7
:10061C000C0801400C0C01400C10014038B50024B2
:10062C0008E004EB44018800124A0244013B1381A8
:10063C000134E4B2022C1CD804EB44039A000D4B99
:10064C0013445B68002BF3D00A4B13449B7A002BAA
:10065C00EED1084B13441B89002BE2D1054B6200F1
:10066C001519A8001D18185A013828816B6898476D
:10067C00DEE738BD2C000020F0B4064C45002F18E6
:10068C00BE00A719A1537A603B819DF81030BB7254
:10069C00F0BC70472C00002008B500F039F8034975
:1006AC004FF47A7000F03AF808BD00BF2906000834
:1006BC00034B4FF480321A60043301221A607047E6
:1006CC00001002401F291CD801280BD010B10228A1
:1006DC0010D070470B480368012202FA01F119434C
:1006EC000160704708480368012202FA01F11943BE
:1006FC000160704705480368012202FA01F11943B1
:10070C0001607047141002401C1002401810024087
:10071C00014B02221A60704710E000E0064B186093
:10072C00064A136843F003031360054B1960054B2D
:10073C0001221A70704700BF14E000E010E000E0E6
:10074C00500000205400002008B5094B1B784BB911
:10075C00084A136823F00303136000230432136068
:10076C0004321360044B1B689847024B1B6808BD8E
:10077C005400002010E000E05000002008B5054BAC
:10078C001A7882F001021A7000210846FFF700FF68
:10079C0008BD00BF5500002008B5054B1A7882F043
:1007AC0001021A7001210020FFF7F2FE08BD00BF04
:1007BC005600002008B5054B1A7882F001021A7019
:1007CC0002210020FFF7E4FE08BD00BF5700002007
:1007DC0000B583B0FFF76CFF02210846FFF772FFEC
:1007EC00022200210846FFF755FE022201210020BB
:1007FC00FFF750FE022211460020FFF74BFE0024AB
:10080C00009423460C4A4FF47A712046FFF734FFCC
:10081C0000942346094A4FF4FA610120FFF72CFF9C
:10082C0000942346064A40F6B8310220FFF724FF15
:10083C00FFF732FFFEE700BF89070008A507000895
:04084C00C1070008D8
:10085000785634122800002000000000000000003C
:1008600000000000010203040607080900A24A0470
:0408700032547698F0
:040000050800010DE1
:00000001FF
