:020000040800F2
:100000000050002021020008270200082B020008EF
:1000100043020008470200085F02000800000000D9
:10002000000000000000000000000000770200084F
:100030007B020008000000007F0200086D09000834
:100040009102000891020008910200089102000844
:100050009102000891020008910200089102000834
:100060009102000891020008910200089102000824
:100070009102000891020008910200089102000814
:100080009102000891020008910200089102000804
:1000900091020008910200089102000891020008F4
:1000A00091020008910200089102000891020008E4
:1000B00091020008910200089102000891020008D4
:1000C00091020008910200089102000891020008C4
:1000D00091020008910200089102000891020008B4
:1000E000910200089102000891020008000000003F
:1000F0000000000000000000000000000000000000
:1001000000000000000000005FF808F100B583B0B7
:1001100000F0DEF8304B314A1360314A1360314B46
:10012000314A32498B4204D21168196004330432D7
:10013000F7E72A4B1A682E4B9A4200D0FEE7284B6D
:100140001A682C4B9A42F9D1234B2B4A13602B4A45
:1001500013602B4B02E000221A600433294A9342B9
:10016000F9D3254B1B6813B9244B1B6803B1FEE779
:1001700000F0BAF8694601A800F0A2F8224C234B1F
:10018000E41AA4100025AC4214DC214C214BE41AE3
:10019000A4100025AC4213DC0099019800F000FC8B
:1001A00005461D4C1D4BE41AA410002C0EDC2846FD
:1001B00000F084F8154B53F8253098470135E2E7F5
:1001C000144B53F8253098470135E3E7013C134BB6
:1001D00053F824309847E8E7BABADECA0000002096
:1001E0003C00002000000020E4090008400000203E
:1001F0007856341232547698400000205400002083
:100200004000002058000020BC020008BC0200088A
:10021000BC020008BC020008BC020008BC020008C6
:1002200008B5FFF773FF00BEFEE71EF0040F0CBF1A
:10023000EFF30880EFF309807146124A104700BEC1
:10024000FEE700BEFEE71EF0040F0CBFEFF30880D0
:10025000EFF3098071460C4A104700BEFEE71EF01E
:10026000040F0CBFEFF30880EFF309807146074AD3
:10027000104700BEFEE700BEFEE700BEFEE700BE80
:10028000FEE770473F0200085B02000873020008A7
:0402900000BEFEE7C7
:10029400E40900080000002040000020E4090008F0
:1002A4000000000000000000400000205800002072
:0802B400000000000000000042
:1002BC00FEE7000001230360014B0B60704700BF99
:1002CC000400002008B500F073F8024A024B9A6053
:1002DC0008BD00BF0000000800ED00E008B500F00C
:1002EC008FF808BD82B00023019300932C4A136849
:1002FC0043F4803313602A4B1B6803F400330093E0
:10030C00019B01330193009B1BB9019BB3F5A06FBB
:10031C00F1D1234B1B6813F4003F06D0012300934B
:10032C00009B012B04D002B0704700230093F7E729
:10033C001C4B1A6842F010021A601A6822F0030271
:10034C001A601A6842F002021A60A3F580535A68C8
:10035C005A605A685A605A6842F480625A605A6805
:10036C0022F47C125A605A6842F4E8125A601A68F5
:10037C0042F080721A600A4B1B6813F0007FFAD0AF
:10038C00074B5A6822F003025A605A6842F0020284
:10039C005A60034B5B6803F00C03082BF9D1C2E7DE
:1003AC00001002400020024008B5FFF79BFF08BD7B
:1003BC0008B5104B1A6842F001021A6059680E4ACF
:1003CC000A405A601A6822F0847222F480321A6051
:1003DC001A6822F480221A605A6822F4FE025A60CB
:1003EC004FF41F029A60FFF7DFFF044B4FF00062DF
:1003FC009A6008BD001002400000FFF800ED00E01C
:10040C001F4B5B6803F00C03042B15D0082B17D083
:10041C001BB11C4B1C4A1A6002E01A4B1A4A1A6098
:10042C00174B5B68C3F30313184AD35CDAB2154954
:10043C000B68D3400B607047124B134A1A60EFE7FE
:10044C000F4A53685268C3F38343023312F4803F5C
:10045C000AD00B4A526812F4003F0BD00C4A02FB34
:10046C0003F3084A1360DBE7094A02FB03F3054A6E
:10047C001360D5E7044A02FB03F3024A1360CFE78B
:10048C00001002401C00002000127A000C0000201A
:10049C0000093D0010B4012827D018B1022847D01C
:1004AC0010BC7047072912D90F29F9D8A1F10804FB
:1004BC00E4B2314B1968A4000F20A04021EA0001DE
:1004CC001960186802FA04F101431960E8E72B4B34
:1004DC00186889000F248C4020EA04001860186802
:1004EC0002FA01F101431960DAE7072912D90F2941
:1004FC00D6D8A1F10800C0B2214B196880000F2496
:10050C00844021EA040119601C6802FA00F12143BD
:10051C001960C5E71B4B186889000F248C4020EA32
:10052C0004001860186802FA01F101431960B7E77A
:10053C00072912D90F29B3D8A1F10803DBB212484D
:10054C0001689B000F249C4021EA040101600468AF
:10055C0002FA03F121430160A2E70C4B18688900F1
:10056C000F248C4020EA04001860186802FA01F18C
:10057C000143196094E700BF0408014000080140E2
:10058C00040C0140000C014004100140001001401B
:10059C00012816D010B1022826D0704742B1012A8A
:1005AC0034D11B48036802FA01F11943016070470A
:1005BC0017480368012202FA01F123EA01010160E4
:1005CC00704742B1012A21D11248036802FA01F1A5
:1005DC001943016070470F480368012202FA01F1C8
:1005EC0023EA01010160704742B1012A0ED10A4889
:1005FC00036802FA01F11943016070470648036869
:10060C00012202FA01F123EA01010160704700BFE7
:10061C000C0801400C0C01400C100140024A1378EC
:10062C0001331370704700BF4500002008B501224C
:10063C0000211046FFF7ACFF012211461046FFF7D0
:10064C00A7FF012205211046FFF7A2FF0122062178
:10065C001046FFF79DFF012207211046FFF798FF78
:10066C00012208211046FFF793FF012209211046B1
:10067C00FFF78EFF01220A211046FFF789FF08BD04
:10068C0000B583B000230093019309E040FA03F214
:10069C0002F0010202A9194401F8082C0133DBB263
:1006AC00072BF3D99DF8002000210846FFF770FFB7
:1006BC009DF8012001210020FFF76AFF9DF8022020
:1006CC0002210020FFF764FF9DF803200321002086
:1006DC00FFF75EFF9DF8042004210020FFF758FF70
:1006EC009DF8052005210020FFF752FF9DF80620FC
:1006FC0006210020FFF74CFF9DF807200721002062
:10070C00FFF746FF03B05DF804FB08B507280AD8CD
:10071C00DFE800F0040A10161C22282E00221146D5
:10072C000120FFF735FF08BD002201210846FFF725
:10073C002FFFF8E7002205210120FFF729FFF2E740
:10074C00002206210120FFF723FFECE700220721FE
:10075C000120FFF71DFFE6E7002208210120FFF72B
:10076C0017FFE0E7002209210120FFF711FFDAE76C
:10077C0000220A210120FFF70BFFD4E708B5022263
:10078C0000210846FFF786FE022201210020FFF718
:10079C0081FE022211460020FFF77CFE022203217B
:1007AC000020FFF777FE022204210020FFF772FEE3
:1007BC00022205210020FFF76DFE022206210020F7
:1007CC00FFF768FE022207210020FFF763FE0222DA
:1007DC0000210120FFF75EFE022201210846FFF7EF
:1007EC0059FE022205210120FFF754FE02220621A8
:1007FC000120FFF74FFE022207210120FFF74AFEDE
:10080C00022208210120FFF745FE022209210120C6
:10081C00FFF740FE02220A210120FFF73BFE08BD34
:10082C00114B1860114B00221A70104B1B78DBB265
:10083C00072B17D810B5FFF7F9FE0C4C2378DBB259
:10084C00094A1268D05CFFF71BFF2078FFF75DFFA9
:10085C0023780133DBB22370044B1B78DBB2072BFC
:10086C00E9D910BD704700BF4800002046000020A9
:10087C0030B4002303E0C45CD4540133DBB28B42AC
:10088C00F9D3002304E05C18C55C15550133DBB2C9
:10089C00062BF8D930BC704770B50E461546084C7F
:1008AC0023781844FFF7BCFF2378B34204D00549E2
:1008BC00284600F03FF870BD00222270F7E700BF19
:1008CC004500002029060008034B4FF480321A60C3
:1008DC00043301221A607047001002401F291CD8F3
:1008EC0001280BD010B1022810D070470B480368B8
:1008FC00012202FA01F119430160704708480368AC
:10090C00012202FA01F1194301607047054803689E
:10091C00012202FA01F119430160704714100240E0
:10092C001C10024018100240014B00221A60704744
:10093C0010E000E0064B1860064A136843F003030E
:10094C001360054B1960054B01221A70704700BFEC
:10095C0014E000E010E000E04C000020500000200B
:10096C0008B5094B1B784BB9084A136823F00303ED
:10097C00136000230432136004321360044B1B68B1
:10098C009847024B1B6808BD5000002010E000E0A7
:10099C004C00002000B583B0FFF796FF02210846FB
:1009AC00FFF79CFF03210220FFF798FFFFF7BCFF26
:1009BC00FFF7E4FE02AA002302F8043D1B210448C1
:1009CC00FFF756FF034A1B2101A8FFF765FFF9E764
:0809DC0020000020A0860100AC
:1009E400785634124400002000000000000000008B
:1009F40000000000010203040607080900A24A04DB
:100A04007E081462007E10700018242418007848B0
:100A14007E007E08040046487E0000FF325476982B
:040000050800010DE1
:00000001FF
